:020000040800F2
:10000000481500204901000821210008232100088B
:10001000272100082B2100082F21000800000000E4
:100020000000000000000000000000003321000874
:1000300035210008000000003721000839210008A0
:100040006301000863010008630100086301000800
:1000500063010008630100086301000863010008F0
:1000600063010008630100086301000863010008E0
:1000700063010008630100086301000863010008D0
:1000800063010008630100086301000863010008C0
:1000900063010008630100086301000863010008B0
:1000A00063010008630100086301000863010008A0
:1000B0003B21000863010008630100086301000898
:1000C0006301000863010008630100086301000880
:1000D0006301000863010008630100086301000870
:1000E0006301000863010008630100086301000860
:1000F0006301000863010008630100086301000850
:10010000630100086301000863010008630100083F
:10011000630100086301000863010008630100082F
:10012000630100086301000863010008630100081F
:10013000DFF810D004F004FF004800475920000801
:10014000AFF3008048150020064880470648004766
:10015000FEE7FEE7FEE7FEE7FEE7FEE7FEE7FEE777
:10016000FEE7FEE74B020008310100080CB5002055
:10017000019000906C48006840F480306A49086043
:1001800000BF6948006800F4003000900198401CEE
:100190000190009818B90198B0F5A06FF1D16248AC
:1001A000006800F4003010B10120009001E0002050
:1001B00000900098012843D15C48006840F010008E
:1001C0005A4908600846006820F0030008600846A5
:1001D000006840F002000860534840685249486097
:1001E0000846406848600846406840F480604860BF
:1001F0000846406820F47C1048600846406840F497
:10020000E81048600846006840F08070086000BF51
:100210004548006800F000700028F9D04248406866
:1002200020F00300404948600846406840F0020062
:10023000486000BF3C48406800F00C000828F9D135
:100240000CBD10B5FFF792FF10BD10B53648006821
:1002500040F00100344908600846406834490840CD
:100260003149486008460068324908402E49086014
:100270000846006820F4802008600846406820F4A2
:10028000FE0048604FF41F008860FFF7DAFF4FF070
:1002900000602949086010BD10B50021002000222F
:1002A000214B5B6803F00C0121B1042906D0082919
:1002B00028D107E0214B224C236027E01F4B204C24
:1002C000236023E0184B5B6803F47010164B5B68E7
:1002D00003F48032022303EB904022B9194B4343CD
:1002E000174C23600DE0104B5B6803F4003323B11F
:1002F000144B4343124C236003E0104B4343104C18
:10030000236003E00D4B0E4C236000BF00BF064B83
:100310005B68C3F303130C4CE15C094B1B68CB40D7
:10032000074C236010BD0000001002400020024076
:100330000000FFF8FFFFF6FE08ED00E000127A0073
:100340000000002000093D00040000203149014365
:10035000314A1160704770B5002100230F22C47824
:1003600004B32D4C246804F4E064C4F5E064210A6D
:10037000C1F10403CA40447804FA03F184781440BC
:1003800021430901254C0678A155047804F01F0586
:100390000124AC4005786D11AD0005F1E025C5F8EC
:1003A000004109E0047804F01F050124AC401C4D15
:1003B0000678761145F8264070BD1A4A0A40024375
:1003C000154B1B1F1A60704739B1134A121D126872
:1003D0000243114B1B1D1A6006E00F4A121D1268E2
:1003E00082430D4B1B1D1A607047042808D14FF043
:1003F000E021096941F004014FF0E022116107E0BA
:100400004FF0E021096921F004014FF0E022116171
:10041000704700000000FA050CED00E000E400E089
:1004200080E100E080FFFF1F10B50446CC48844205
:1004300008D10121042000F02DFB0021042000F050
:1004400029FB46E0C748844208D10121082000F07A
:1004500021FB0021082000F01DFB3AE0C248844245
:1004600008D10121102000F015FB0021102000F020
:1004700011FB2EE0BD48844208D10121202000F06C
:1004800009FB0021202000F005FB22E0B84884424F
:1004900008D10121402000F0FDFA0021402000F0A9
:1004A000F9FA16E0B348844208D10121802000F017
:1004B000F1FA0021802000F0EDFA0AE0AE48844213
:1004C00007D10121801500F0E5FA0021A01500F008
:1004D000E1FA10BD10B50121084600F0DBFA002159
:1004E000012000F0D7FA10BD2DE9F04102460025A9
:1004F0000026002000230024002791F803C00CF000
:100500000F0591F803C00CF0100CBCF1000F03D0E4
:1005100091F802C04CEA050591F800C0BCF1000F4B
:1005200031D0146800202BE04FF0010C0CFA00F3DE
:10053000B1F800C00CEA03069E4220D183004FF0C0
:100540000F0C0CFA03F7BC4305FA03FC4CEA040455
:1005500091F803C0BCF1280F06D14FF0010C0CFA42
:1005600000FCC2F814C00AE091F803C0BCF1480FC7
:1005700005D14FF0010C0CFA00FCC2F810C0401C71
:100580000828D1D31460B1F800C0BCF1FF0F34DDEE
:10059000546800202EE000F1080C4FF0010808FA22
:1005A0000CF3B1F800C00CEA03069E4221D183008F
:1005B0004FF00F0C0CFA03F7BC4305FA03FC4CEAAE
:1005C000040491F803C0BCF1280F05D100F1080C18
:1005D00008FA0CF8C2F8148091F803C0BCF1480F77
:1005E00007D100F1080C4FF0010808FA0CF8C2F826
:1005F0001080401C0828CED35460BDE8F0814FF62F
:10060000FF710180022181700421C1707047024690
:10061000002093680B400BB1012000E000207047E0
:100620000146886880B2704702460020D3680B40BC
:100630000BB1012000E0002070470146C86880B27D
:10064000704701617047416170470AB1016100E084
:1006500041617047C16070474FF480320A43826144
:100660008161826182698269704702460020434B42
:1006700018684FF68073184040EA021008433F4B59
:10068000186070473E49C8617047F0B50A460023BC
:1006900000240021002500F00046B6F1004F02D1F1
:1006A000364EF16901E0354E7168C0F3034583B2FF
:1006B00000F44016B6F5401F08D121F070612F4EAE
:1006C000766826F070662D4F7E6012E000F480168A
:1006D000B6F5801F06D1032606FA05F4A14341F0C2
:1006E000706106E0460D360103FA06F6B14341F0AB
:1006F000706122B1460D360103FA06F6314300F06F
:100700000046B6F1004F02D11C4EF16101E01B4ED4
:100710007160F0BD30B500228B071C0F0F2303FA68
:1007200004F2164B08338C1053F824309343134CC7
:1007300008348D1044F8253023468C1053F82430AB
:100740008C07240F00FA04F423430C4C08348D105A
:1007500044F8253030BD0A49DC310860704700009C
:1007600000080140000C014000100140001401404D
:1007700000180140001C0140002001400000014021
:1007800000002042DF48006840F00100DD490860B9
:1007900008464068DC490840DA4948600846006875
:1007A000DA490840D74908600846006820F48020EC
:1007B00008600846406820F4FE0048604FF41F00BF
:1007C00088607047CF49096821F48031CD4A1160B3
:1007D0001146096821F480211160B0F5803F03D0F3
:1007E000B0F5802F0ED106E0C649096841F480318A
:1007F000C44A116007E0C349096841F4A021C14A15
:10080000116000E000BF00BF704710B50146002234
:10081000002300204A11012A02D1BA4C236806E0C5
:10082000022A02D1B74C236A01E0B64C636A01F098
:100830001F02012494401C400CB1012000E0002064
:1008400010BD38B5002000900024002500BF3120E5
:10085000FFF7DBFF05460098401C00900098B0F5BC
:10086000A06F01D0002DF2D03120FFF7CEFF08B1EC
:10087000012400E00024204638BD01460020A14AA2
:10088000106820F0F80040EAC10010607047A049ED
:1008900008607047024600209A4B586820F47C108C
:1008A00042EA01031843974B58607047984908661D
:1008B000704701460020934A506820F00300084327
:1008C000506070478F48406800F00C007047014648
:1008D00000208C4A506820F0F000084350607047B8
:1008E00001460020874A506820F4E06008435060C9
:1008F000704701460020834A506820F4605040EA67
:10090000C1005060704729B17E4A527A02437D4B44
:100910005A7204E07B4A527A82437A4B5A72704789
:100920007B49D8310860704701460020754A5068FD
:1009300020F440400843506070470021714A203243
:100940001170704A82F82010012802D004280AD1C0
:1009500004E001216B4A2032117005E00521694A4B
:100960002032117000E000BF00BF70476949086085
:1009700070476449096A0143624A116270476549D8
:1009800044390860704730B500210022002400235C
:100990005C4D6D6805F00C0121B1042905D00829D2
:1009A00023D105E05C4D056022E05B4D05601FE052
:1009B000544D6D6805F47012524D6D6805F4803425
:1009C000022505EB92421CB9544D554305600BE0DE
:1009D0004C4D6D6805F400351DB1504D5543056013
:1009E00002E04D4D5543056002E04B4D056000BFF0
:1009F00000BF444D6D6805F0F0010909484D6B5C7E
:100A00000568DD4045603F4D6D6805F4E061090A09
:100A1000434D6B5C4568DD4085603A4D6D6805F47B
:100A20006051C90A3E4D6B5C4568DD40C560354D7F
:100A30006D6805F44041890B3A4D6B5CC568B5FBA8
:100A4000F3F5056130BD29B12E4A526902432D4BA1
:100A50005A6104E02B4A526982432A4B5A6170471B
:100A600029B1284A92690243264B9A6104E0254A3B
:100A700092698243234B9A61704729B1214AD26916
:100A80000243204BDA6104E01E4AD26982431D4BC7
:100A9000DA61704729B11B4AD2680243194BDA6008
:100AA00004E0184AD2688243164BDA60704729B1D5
:100AB000144A12690243134B1A6104E0114A126985
:100AC0008243104B1A6170471249403908607047E1
:100AD0000F49C86470470B49C87170470948406A9C
:100AE00040F0807007494862704701460020054A7F
:100AF00092680A400AB1012000E0002070470149D5
:100B000088727047001002400000FFF8FFFFF6FEF9
:100B1000000042428004424200127A0000093D0077
:100B2000140000202400002010B50446BE48844272
:100B300008D101218014FFF7ADFF0021A014FFF7B9
:100B4000A9FF16E0B948844208D101210014FFF73B
:100B5000AEFF00212014FFF7AAFF0AE0B448844248
:100B600007D10121C013FFF7A2FF0021E013FFF717
:100B70009EFF10BD10B50022028802F441520B887E
:100B80004C8823438C882343CC8823430C892343FC
:100B90004C8923438C892343CC8923431A43028005
:100BA000838B4FF2FF74234083830B8A038210BD33
:100BB0002DE9F04F85B005460C464FF0000902279D
:100BC0004FF000084FF0010B0026B246A88B4FF201
:100BD00040010840A88302202884B5F81C90A06832
:100BE000022801D100BF38E0A08810B94FF0010BF6
:100BF00001E04FF0020B8D48854200D100E000BFBC
:100C00006846FFF7C0FEDDF800A0E088B0F5007F81
:100C10000AD14FEA1A2000EB80004000A168B0FB27
:100C2000F1F0401D86B20BE04FEA4B10BAFBF0F03A
:100C300000EB80004000A168B0FBF1F0401D86B2DF
:100C40000A20B6FBF0F606F00108A6EB0800C0F398
:100C50004F074FF6FF7000EA0828022F01DBFF2F35
:100C600002DD02274FF00008E08840EA0800384320
:100C70002884A088A1890843618808432188084303
:100C800040F4006040EA0909A5F81C9005B0BDE8F1
:100C9000F08F0021018041808180C18001814181EC
:100CA0008181C1810721018270470021018041803B
:100CB0008180C1800221816000218181704721B142
:100CC000028842F04002028004E002884FF6BF73BF
:100CD0001A400280704721B1828B42F48062828385
:100CE00004E0828B4FF6FF331A408283704730B5A1
:100CF000002400230C110125A540ABB21AB1858850
:100D00001D43858002E085889D43858030BD1AB1F2
:100D100083880B43838002E083888B438380704702
:100D2000818170470146888970474FF6FF62914282
:100D300004D0028842F48072028004E002884FF6F8
:100D4000FF631A400280704721B1828842F004029A
:100D5000828004E082884FF6FB731A4082807047DD
:100D600002884FF2FF731A40028002880A43028011
:100D70007047018841F480510180704721B1028899
:100D800042F40052028004E002884DF6FF731A40DC
:100D90000280704702460020012901D0108B00E03C
:100DA000908A70470146088A7047B1F5804F04D198
:100DB000028842F48042028004E002884BF6FF730E
:100DC0001A40028070470246002013890B400BB185
:100DD000012000E000207047CA4302817047F0B54F
:100DE0000246002000240023002501F00F07012601
:100DF000BE40B4B20B1101269E40B3B2968806EAFB
:100E000003051689264016B10DB1012000E000202F
:100E1000F0BD10B5002201F00F040123A3409AB2E7
:100E2000D343038110BD0000003001400038004072
:100E3000003C004010B50446FE48844208D1012120
:100E4000C014FFF727FE0021E014FFF723FEC4E0E3
:100E5000B4F1804F08D101210846FFF728FE002198
:100E60000120FFF724FEB8E0F348844208D10121B5
:100E70000220FFF71CFE00210220FFF718FEACE065
:100E8000EE48844208D101210420FFF710FE002122
:100E90000420FFF70CFEA0E0E948844208D10121BC
:100EA0000820FFF704FE00210820FFF700FE94E071
:100EB000E448844208D101211020FFF7F8FD002109
:100EC0001020FFF7F4FD88E0DF48844208D10121BB
:100ED0002020FFF7ECFD00212020FFF7E8FD7CE05B
:100EE000DA48844208D101214014FFF7D3FD0021E4
:100EF0006014FFF7CFFD70E0D548844209D101218D
:100F0000C804FFF7C7FD00214FF40020FFF7C2FD22
:100F100063E0D048844209D101210805FFF7BAFDFA
:100F200000214FF48010FFF7B5FD56E0CA48844217
:100F300009D101214805FFF7ADFD00214FF4001054
:100F4000FFF7A8FD49E0C548844208D101214020AF
:100F5000FFF7ADFD00214020FFF7A9FD3DE0C048AF
:100F6000844208D101218020FFF7A1FD00218020CB
:100F7000FFF79DFD31E0BB48844208D10121801577
:100F8000FFF795FD0021A015FFF791FD25E0B6487C
:100F9000844209D101210804FFF77CFD00214FF4B0
:100FA0008030FFF777FD18E0B048844209D1012175
:100FB0004804FFF76FFD00214FF40030FFF76AFD92
:100FC0000BE0AB48844208D101218804FFF762FDA1
:100FD00000214FF48020FFF75DFD10BD0022028844
:100FE000944B98420ED0994B98420BD0B0F1804F61
:100FF00008D0914B984205D0904B984202D0904B2C
:10100000984204D14FF68F731A404B881A438D4B88
:10101000984207D08C4B984204D04FF6FF431A40B9
:10102000CB881A4302808B8883850B880385814B8C
:1010300098420BD0854B984208D08B4B984205D0F4
:101040008A4B984202D08A4B984201D10B7A038690
:1010500001238382704770B5002400220023058C91
:101060004FF6FE7635400584028C8388048B4FF65C
:101070008F752C40B51E2C400D882C43751E2A40C0
:101080000D892A434D882A436A4DA8420BD06F4DE3
:10109000A84208D0744DA84205D0744DA84202D091
:1010A000734DA84213D14FF6F7752A404D892A4354
:1010B0004FF6FB752A408D882A434FF6FF652B407B
:1010C0004FF6FF552B408D892B43CD892B438380D1
:1010D0000483CD888586028470BD70B5002400220B
:1010E0000023058C4FF6EF7635400584028C83880B
:1010F000048B48F6FF752C404FF6FF452C400D88B9
:101100004FF6FF7606EA05252C434FF6DF752A4099
:101110000D8906EA05152A434D8806EA05152A4376
:10112000444DA84202D0494DA8421DD14FF67F75CB
:101130002A404D894FF6FF7606EA05152A434FF6F9
:10114000BF752A408D8806EA05152A434FF6FF35FC
:101150002B404FF2FF752B408D8906EA85052B4306
:10116000CD8906EA85052B4383800483CD880587D6
:10117000028470BD70B5002400220023058C4FF658
:10118000FF6635400584028C8388848B4FF68F750B
:101190002C404FF6FC752C400D882C434FF6FF5524
:1011A0002A400D894FF6FF7606EA05252A434D8829
:1011B00006EA05252A431F4DA84202D0234DA84226
:1011C0001DD14FF2FF752A404D894FF6FF7606EA92
:1011D00005252A434FF6FF352A408D8806EA052566
:1011E0002A434EF6FF752B404DF6FF752B408D8937
:1011F00006EA05152B43CD8906EA05152B438380A6
:101200008483CD888587028470BD70B50022002359
:101210000024058C4EF6FF7635400584038C8488C7
:10122000828B48F6FF752A404FF6FF452A400D880D
:1012300020E00000002C01400004004000080040B5
:10124000000C004000100040001400400034014039
:10125000004C014000500140005401400018004083
:10126000001C0040002000400040014000440140BC
:10127000004801404FF6FF7606EA05252A434DF661
:10128000FF752B400D8906EA05352B434D8806EA8C
:1012900005352B43FA4DA84202D0FA4DA84208D199
:1012A0004BF6FF752C408D894FF6FF7606EA8515C3
:1012B0002C4384808283CD88A0F84050038470BD85
:1012C000828B4FF2FF331A408283828B4FF6FF737B
:1012D00003EA01231A4382837047F0B50C46154692
:1012E000002200210026078C4EF6FF7C07EA0C073F
:1012F0000784828B018C4FF6FF7707EA043640F6AD
:10130000FF473A404FF6FF7707EA05273A434FF683
:10131000FF7707EA03373A43D94FB8420ED0D94F87
:10132000B8420BD0B0F1804F08D0D74FB84205D0AB
:10133000D64FB84202D0D64FB84206D14DF6FF770D
:10134000394046F48057394305E047F6FF573940A6
:1013500044F48057394382830184F0BD828B4FF679
:10136000F3731A408283828B0A4382837047F0B5FD
:101370000C461546002200210026078C4FF6FF6C14
:1013800007EA0C070784828B018C4FF6FF7707EA88
:1013900004264FF60C773A404FF6FF7707EA03171B
:1013A0002F433A43B64FB8420ED0B64FB8420BD097
:1013B000B0F1804F08D0B44FB84205D0B34FB84217
:1013C00002D0B34FB84206D14FF6FF57394046F42A
:1013D0008077394305E04FF2FF57394044F4807776
:1013E000394382830184F0BD028B4FF2FF331A40F0
:1013F0000283028B4FF6FF7303EA01231A43028331
:101400007047F0B50C461546002200210026078CD7
:101410004FF6EF7C07EA0C070784028B018C4FF62E
:10142000FF7707EA041640F6FF473A404FF6FF778A
:1014300007EA03373A434FF6FF7707EA05273A43AF
:101440008F4FB8420ED08F4FB8420BD0B0F1804FC3
:1014500008D08D4FB84205D08C4FB84202D08C4F87
:10146000B84206D14FF6DF77394046F010073943CE
:1014700005E04FF65F77394044F0100739430283A7
:101480000184F0BD028B4FF6F3731A400283028B86
:101490000A4302837047F0B50C461546002200212E
:1014A000068C4FF6FE773E400684028B018C4FF689
:1014B0000C7632407E1C06EA03162E433243704EF1
:1014C000B0420ED06F4EB0420BD0B0F1804F08D07A
:1014D0006D4EB04205D06D4EB04202D06C4EB0425F
:1014E00006D14FF6FD76314044F00106314305E068
:1014F0004FF6F576314044F0010631430283018412
:10150000F0BD70B505460C465D4885420ED05D487D
:1015100085420BD0B5F1804F08D05B48854205D09D
:101520005A48854202D05A48854200D100E000BFA7
:10153000208850B92389A28861882846FFF7ABFF2D
:10154000E1882846FFF79EFF25E0208804280AD17D
:101550002389A28861882846FFF753FFE18828463F
:10156000FFF742FF17E0208808280AD12389A288C4
:1015700061882846FFF7FBFEE1882846FFF7EEFE6C
:1015800009E02389A28861882846FFF7A6FEE18842
:101590002846FFF795FE70BD2DE9F04105460C4643
:1015A00000260127608808B9022600E00026A088EE
:1015B000012801D1022700E001272088A0B9238952
:1015C000A28861882846FFF766FFE1882846FFF772
:1015D00059FF23893A4631462846FFF712FFE18832
:1015E0002846FFF701FF13E02389A2886188284677
:1015F000FFF707FFE1882846FFF7F6FE23893A4602
:1016000031462846FFF747FFE1882846FFF73AFFB3
:10161000BDE8F0810A884B881A438B881A43CB882F
:101620001A430B891A434B891A438B891A43A0F832
:10163000442070474FF6FF71818000210180C180F6
:101640004180017270470021018041808180C1800A
:10165000018141818181C1817047002101804180E8
:10166000012181800021C18001817047002101801A
:1016700041808180C180018141818181704700006A
:10168000002C0140003401400004004000080040EC
:10169000000C004021B1028842F00102028004E007
:1016A00002884FF6FE731A400280704731B1B0F8DD
:1016B000442042F40042A0F8442005E0B0F8442061
:1016C000C2F30E02A0F8442070471AB183890B437D
:1016D000838102E083898B438381704781827047D5
:1016E00041EA0203A0F8483070471AB183890B43DE
:1016F000838102E083898B438381704701894FF6A0
:10170000F8721140018170470A46002101894FF6A5
:101710008F73194011430181704730B504460D465F
:1017200029462046FFF7F0FF208940F0070020817E
:1017300030BD2DE9F04104460D4616461F46602D8A
:1017400006D13B46012231462046FFF75AFE05E00E
:101750003B46012231462046FFF79DFE29462046A2
:10176000FFF7D2FF208940F007002081BDE8F0811B
:1017700030B50C4600210189C9B24FF6FF7505EA64
:101780000325154325432943018130BD2DE9F0414F
:1017900005460E4617469846002443463A463146CB
:1017A0002846FFF7E5FF2C894FF6F870044044F017
:1017B00007044FF68F70044044F070042C81BDE89C
:1017C000F081F0B504460D4616461F463B463246AC
:1017D00029462046FFF7CCFF208940F48040208135
:1017E000F0BD0185828270470A46002101884FF6CC
:1017F0008F731940114301807047F0B50C461546B0
:101800001E460021002200230189028B038C4FF623
:10181000F877394021434FF6FC473A4040F2011730
:101820003A434FF6DD773B404FF6FF7707EA06175E
:101830002F433B43018102830384F0BD0A4600210C
:10184000018B4FF68F7319401143018370470A468D
:101850000021018B48F6FF7319404FF6FF7303EA2E
:1018600002231943018370470A460021818B4FF6FA
:101870008F7319401143818370470A460021818B81
:1018800048F6FF7319404FF6FF7303EA022319432A
:101890008183704721B1028842F08002028004E017
:1018A00002884FF67F731A400280704721B1828808
:1018B00042F00402828004E082884FF6FB731A40F3
:1018C0008280704721B1828842F00802828004E061
:1018D00082884FF6F7731A408280704721B1828860
:1018E00042F00102828004E082884FF6FE731A40C3
:1018F000828070470A460021018B4FF6F77319402A
:101900001143018370470A460021018B4FF2FF7398
:1019100019404FF6FF7303EA02231943018370470E
:101920000A460021818B4FF6F773194011438183DA
:1019300070470A460021818B4FF2FF7319404FF622
:10194000FF7303EA02231943818370470A4600218B
:10195000018B4FF6FB7319401143018370470A4610
:101960000021018B4FF6FF3319404FF6FF7303EA56
:1019700002231943018370470A460021818B4FF6E9
:10198000FB7319401143818370470A460021818B04
:101990004FF6FF3319404FF6FF7303EA0223194352
:1019A000818370470A460021018B4FF67F731940EF
:1019B0001143018370470A460021018BC1F30E01D8
:1019C0004FF6FF7303EA02231943018370470A4667
:1019D0000021818B4FF67F7319401143818370473B
:1019E0000A460021818BC1F30E014FF6FF7303EA13
:1019F00002231943818370470A460021018C4FF668
:101A0000FD7319401143018470470A460021018C7F
:101A10004FF6F77319401143018470470A460021BD
:101A2000018C4FF6DF7319404FF6FF7303EA021380
:101A30001943018470470A460021018C4FF67F73D9
:101A400019404FF6FF7303EA0213194301847047EC
:101A50000A460021018C4FF6FF5319404FF6FF73E1
:101A600003EA02231943018470470A460021018CCE
:101A70004FF2FF7319404FF6FF7303EA0223194335
:101A8000018470470A460021018C4DF6FF7319400E
:101A90004FF6FF7303EA023319430184704730B5F0
:101AA000002301248C40A3B2048C9C430484048C46
:101AB00002FA01F5ADB22C43048430BD30B50023E9
:101AC00004248C40A3B2048C9C430484048C02FA4A
:101AD00001F5ADB22C43048430BD70B5034600203F
:101AE00000241846183001258D40ACB21D8CA5434A
:101AF0001D8409B1082909D100EB6100056825F0B2
:101B0000700505600568154305600EE00D1FC5F3FF
:101B10004E052844056825F4E045056005684FF644
:101B2000FF7606EA02263543056070BD21B10288C2
:101B300042F00202028004E002884FF6FD731A4070
:101B40000280704721B1028842F00402028004E062
:101B500002884FF6FB731A400280704721B18288D9
:101B600042F08002828004E082884FF67F731A4040
:101B70008280704702884FF6F7731A40028002880D
:101B80000A430280704782884FF68F731A40828022
:101B900082880A438280704702894FF6F8731A40A0
:101BA000028102890A430281704702894FF67F73DE
:101BB0001A40028102890A4302817047818470477A
:101BC000818570478186704701877047818770479C
:101BD000A0F84010704702884FF6FF431A40028079
:101BE00002880A43028070470146888E704701468A
:101BF000088F70470146888F70470146B1F8400052
:101C000070470146888C70470146088D7047024630
:101C10000020138A0B400BB1012000E00020704728
:101C2000CA430282704730B50246002000230024D8
:101C3000158A05EA0103958905EA010413B10CB17F
:101C4000012000E0002030BDCA430282704700003E
:101C500010B50446FB48844209D101218803FEF7F0
:101C600019FF00214FF48040FEF714FF32E0F648E0
:101C7000844209D101214804FEF719FF00214FF4E5
:101C80000030FEF714FF25E0F048844209D101211D
:101C90008804FEF70CFF00214FF48020FEF707FFB9
:101CA00018E0EB48844209D10121C804FEF7FFFE89
:101CB00000214FF40020FEF7FAFE0BE0E5488442D5
:101CC00008D101210805FEF7F2FE00214FF4801033
:101CD000FEF7EDFE10BD2DE9F04786B005460E4635
:101CE0000024A24600BFA1460027B08900B100BF72
:101CF0002F462C8A4CF6FF700440F08804432C8257
:101D0000AC894EF6F3100440B088318908437189DC
:101D100008430443AC81AC8A4FF6FF400440B089CD
:101D20000443AC8201A8FEF72EFEC648874202D1CA
:101D3000DDF810A001E0DDF80CA0A88900F4004057
:101D400040B10AEBCA0000EB0A1031684900B0FB51
:101D5000F1F807E00AEBCA0000EB0A1031688900CD
:101D6000B0FBF1F86420B8FBF0F004012009642115
:101D700001FB1089A88900F4004040B1322000EB3B
:101D8000C900B0FBF1F000F00700044308E0322086
:101D900000EB09106421B0FBF1F000F00F000443E8
:101DA0002C8106B0BDE8F0874FF416510160002188
:101DB0008180C18001810C21418100218181704796
:101DC00010B502460020108A4FF2FF0318400B881E
:101DD0004C8823438C882343CC88234318431082A8
:101DE00010BD0021018041808180C180704721B1F8
:101DF000828942F40052828104E082894DF6FF73A9
:101E00001A4082817047F0B5034600240026002561
:101E1000002040F66A17B94200D100BF1846C1F34E
:101E2000421401F01F06012707FA06F5012C01D123
:101E30000C3004E0022C01D1103000E014301AB153
:101E400007682F43076002E00768AF430760F0BDF3
:101E50001AB1838A0B43838202E0838A8B43838295
:101E60007047028A4FF6F0731A400282028A0A43D0
:101E70000282704782894FF2FF731A408281828901
:101E80000A438281704721B1828942F00202828135
:101E900004E082894FF6FD731A4082817047028AFE
:101EA0004FF6DF731A400282028A0A4302827047A9
:101EB00021B1028A42F48042028204E0028A4BF697
:101EC000FF731A4002827047C1F308028280704794
:101ED00001468888C0F308007047818941F00101FC
:101EE00081817047028BD2B20283028B42EA0122C7
:101EF00002837047028B02F47F420283028B0A4303
:101F00000283704721B1828A42F02002828204E07B
:101F1000828A4FF6DF731A408282704721B1828A2B
:101F200042F01002828204E0828A4FF6EF731A4078
:101F30008282704721B1828A42F00802828204E0E4
:101F4000828A4FF6F7731A408282704721B18289E4
:101F500042F40042828103E08289C2F30E02828150
:101F6000704721B1828A42F40062828204E0828A50
:101F70004FF2FF731A4082827047828A4FF6FB73DA
:101F80001A408282828A0A438282704721B1828A01
:101F900042F00202828204E0828A4FF6FD731A4008
:101FA0008282704702460020B1F5007F00D100BF59
:101FB00013880B400BB1012000E00020704701F4B2
:101FC0000072B2F5007F00D100BFCA4302807047A3
:101FD00070B50246002400230025002040F66A1652
:101FE000B14200D100BFC1F3421501F01F03012629
:101FF00006FA03F3012D02D19689334006E0022D43
:1020000002D1168A334001E0968A33400C12012631
:1020100006FA04F41688344013B10CB1012000E034
:10202000002070BD10B50022002340F66A14A142C2
:1020300000D100BF0A1201249440A3B2DC43048003
:1020400010BD00000038014000440040004800403E
:10205000004C004000500040482001F097FB00F089
:1020600079F800F0FCFA0BA003F01AF800F02AFC53
:1020700000F0C1FC00F016FC1149124800F0DCFF32
:1020800011A003F00DF816A003F00AF801E002F029
:1020900061FCFCE72020D2B0BBF0CDF8C2E7CACA91
:1020A000C5E4B0E620CDF8C2E7B3F5CABCBBAF20AB
:1020B00044656D6F2056312E30200D0A000000005F
:1020C000590000205100002020CDF8C2E7D2D1CD28
:1020D000EAB3C9B3F5CABCBBAFA1ADA1AD0D0A004F
:1020E00020D2B0BBF0CDF8C2E7CACAC5E4B0E5D78C
:1020F000F7CEAA44484350BFCDBBA7B6CBA3ACB3E1
:10210000A2CAD4B4D344484350B7FECEF1C6F7BBFD
:10211000F1C8A14950B5D8D6B7200D0A000000007B
:10212000704700BFFEE700BFFEE700BFFEE700BF4D
:10213000FEE7704770477047704710B50121880768
:10214000FFF771FD28B100F0C0FD01218807FFF7FE
:102150007BFD10BD00B585B0012144F20400FEF7FF
:102160007FFC4FF40070ADF8100018208DF81300BC
:1021700003208DF8120004A92148FEF7B5F94FF4A9
:102180008060ADF8100004208DF8130004A91C48ED
:10219000FEF7AAF94FF4E13000900020ADF80400FA
:1021A000ADF80600ADF80800ADF80C000C20ADF855
:1021B0000A0069461348FFF78EFD01211148FFF719
:1021C00016FE05B000BD70B504460D46E1B20D48DF
:1021D000FFF77AFE00BF40210A48FFF7E3FE002820
:1021E000F9D0204670BD10B5044600BF2021054837
:1021F000FFF7D8FE0028F9D00248FFF769FE10BDAE
:10220000000801400038014010B5A02000F03DFA60
:1022100008B9012010BD00F089F90020FAE72DE986
:10222000F04106460F46154600F06BF9A02000F07D
:102230008BF900F0D0F900B125E0F8B200F084F994
:1022400000F0C9F900B11EE000F05BF9A12000F038
:102250007BF900F0C0F900B115E000240CE000F0BB
:102260009BF93055681EA04202D000F0D0F901E081
:1022700000F0E3F9601C84B2AC42F0DB00F056F9E8
:102280000120BDE8F08100F051F90020F9E72DE9C7
:10229000F047074688469146464600242BE014B195
:1022A00006F00700E0B900F041F900250AE000F06F
:1022B00028F9A02000F048F900F08DF900B903E0FA
:1022C000681C85B2642DF2DB00BFB5F57A7F00D1C2
:1022D00018E0F0B200F038F900F07DF900B111E03B
:1022E000385D00F031F900F076F900B10AE0701CB9
:1022F00086B2601C84B24C45D1DB00F017F9012096
:10230000BDE8F08700F012F90020F9E710B5C0B081
:10231000002404E0FF200DF80400601C84B2FF2CB0
:10232000F8DD4FF4807200216846FFF7B0FF20B956
:1023300036A002F0B5FE40B010BD39A002F0B0FEEC
:1023400000BFF8E701B502E00098401E0090009839
:102350000028F9D108BD10B5ADF5007DFFF754FF99
:1023600020B934A002F09CFE00BFFEE7002403E089
:1023700040A90C55601C84B2FF2CF9DD4FF480722B
:10238000002140A8FFF783FF28B930A002F088FEA3
:102390000DF5007D10BD32A002F082FE3548FFF73A
:1023A000D1FF4FF4807200216846FFF738FF18B95B
:1023B00031A002F075FEEBE734A002F071FE0024BC
:1023C0001CE01DF8040040A9095D884208D01DF8F2
:1023D000041035A002F064FE35A002F061FED7E7DC
:1023E0001DF804103BA002F05BFE04F00F000F2864
:1023F00002D10AA002F054FE601C84B2FF2CE0DD82
:1024000036A002F04DFE00BFFEE70000B2C1B3FDF2
:10241000656570726F6DB3F6B4EDA3A10D0A00008F
:10242000B2C1B3FD656570726F6DB3C9B9A6A3A1E2
:102430000D0A0000C3BBD3D0BCECB2E2B5BDB4AE54
:10244000D0D0454550524F4D210D0A00D0B465659E
:1024500070726F6DB3F6B4EDA3A10D0A0000000019
:10246000D0B4656570726F6DB3C9B9A6A3A10D0A2A
:1024700000000000FFFF0F00B6C1656570726F6D50
:10248000B3F6B4EDA3A10D0A00000000B6C1656566
:1024900070726F6DB3C9B9A6A3ACCAFDBEDDC8E743
:1024A000CFC2A3BA0D0A0000307825303258200080
:1024B000B4EDCEF33A454550524F4DB6C1B3F6D3C5
:1024C000EBD0B4C8EBB5C4CAFDBEDDB2BBD2BBD63F
:1024D000C20000002025303258000000656570728F
:1024E0006F6DB6C1D0B4B2E2CAD4B3C9B9A60D0AF1
:1024F00000000000002001E0411CC8B20A28FBDBFC
:10250000704710B580206949086040200860FFF7D7
:10251000F1FF80206549091D0860FFF7EBFF4020AF
:102520006249091D0860FFF7E5FF10BD10B5802066
:102530005E49091D08604020091F0860FFF7DAFFA7
:1025400080205A49086010BD70B50446002520E07F
:1025500004F0800018B180205449086003E0802016
:102560005249091D0860FFF7C5FF40204F49086028
:10257000FFF7C0FF40204D49091D0860072D02D11B
:102580008020091F08606006040EFFF7B3FF681C77
:10259000C5B2082DDCDB70BD70B50024002516E047
:1025A0006006040E402041490860FFF7A3FF3F4842
:1025B0000838006800F0800008B1601CC4B24020F8
:1025C0003A49091D0860FFF795FF681CC5B2082D40
:1025D000E6DB204670BD10B5802034490860FFF767
:1025E00089FF402031490860FFF784FF2F480838F1
:1025F000006800F0800008B1012400E000244020C1
:102600002A49091D0860FFF775FF204610BD10B567
:1026100080202649091D0860FFF76CFF40202349F0
:102620000860FFF767FF40202049091D0860FFF799
:1026300061FF80201D49086010BD10B580201B4936
:102640000860FFF757FF402018490860FFF752FF66
:1026500040201649091D0860FFF74CFF10BD08B562
:1026600001210820FEF7FCF9C020ADF8000003208E
:102670008DF8020014208DF8030069460B481038CD
:10268000FDF732FFFFF752FF08BD70B50446FFF7B4
:10269000E6FFFFF736FF2046FFF756FFFFF79BFFE9
:1026A0000546FFF743FF284670BD0000100C0140AF
:1026B00008B54FF4E060FDF749FE1C208DF80000DE
:1026C00000208DF8010003208DF8020001208DF814
:1026D00003006846FDF73FFE08BD0EB50121084620
:1026E000FEF7CBF94FF47A70ADF804004720ADF84F
:1026F00000000020ADF80600ADF8020069464FF07A
:102700008040FEF76BFC01218807FFF789FA012260
:1027100011469007FEF7D9FF01218807FEF7BAFF9F
:1027200000210120FEF7A9F90EBD000010B500241C
:1027300012222146FE48FFF7AAFD0A2001F042F8C6
:1027400010BD10B512220021FA48FFF768FD0A20DB
:1027500001F05FF810BD08B5F548F7490A68026056
:1027600089888180F5490968C0F80610F44909682C
:10277000C0F80A10F3490968C0F80E10F249096858
:10278000C0F81210F148007810B9F1A002F088FCEE
:10279000EE480078022825D1FFF7D3FFE5480078FE
:1027A000D8B9E4484078082817D1E2488078DC2876
:1027B00013D1EFA002F074FCDD48DE49D1F8061019
:1027C000C0F80610DB49D1F80A10C0F80A10D94940
:1027D000D1F80E10C0F80E1004E0EAA002F060FC80
:1027E000FFF7A4FFD9480078012822D1F3480078E8
:1027F000012818D1F2A002F053FCCD48F449D1F8D9
:102800000610C0F80610F249D1F80A10C0F80A10F4
:10281000EF49D1F80E10C0F80E10ED49D1F81210A2
:10282000C0F8121005E0EBA002F03AFCC8A002F0DC
:1028300037FC0120BE4988760021BD48C1760A30A8
:1028400000F09AFABA480E3000F086FAB848801DB7
:1028500000F0A4FAB94800F0BCFAB848C07800907B
:10286000B648837842780178E2A002F019FCB448B7
:1028700000F09DFAB248C0780090B1488378427861
:102880000178E4A002F00CFCAE4800F06DFAAD480F
:10289000C0780090AB48837842780178E5A002F0D8
:1028A000FFFB08BD10B5A248A3490A6802608988E9
:1028B000818000F06AFAC6489F490A6802608988E8
:1028C000818010BD00B587B001210802FEF7C8F86D
:1028D00001214FF48470FEF7C3F801218803FEF74D
:1028E000CCF84FF40050ADF8040003208DF806003A
:1028F00018208DF8070001A9D648FDF7F5FD4FF423
:102900008040ADF8040001A9D248FDF7EDFD4FF479
:102910000040ADF8040001A9CE48FDF7E5FD4FF4F5
:102920000070ADF8040010208DF8070001A9CA4816
:10293000FDF7DAFD0020ADF808004FF48270ADF825
:102940000A000020ADF80C000220ADF80E000120B6
:10295000ADF810004002ADF812000820ADF81400E8
:102960000020ADF816000720ADF8180002A9BB48FA
:10297000FEF700F90121B948FEF7A1F94FF4004034
:10298000ADF8040003208DF8060010208DF8070034
:1029900001A9B148FDF7A8FD4FF40041AE48FDF78D
:1029A00050FE4FF48070ADF8040003208DF806004F
:1029B00048208DF8070001A9A748FDF795FD07B04D
:1029C00000BD10B504462CB94FF40071A248FDF7C4
:1029D0003AFE05E0012C03D161029F48FDF731FE6C
:1029E00010BD10B50020FFF7ECFF10BD10B50120A1
:1029F000FFF7E7FF10BD10B54FF400419648FDF713
:102A000022FE022000F0DEFE4FF400419248FDF766
:102A100018FE4FF4C86000F0D5FE10BD10B5044696
:102A200000BF02218D48FEF7CEF90028F9D02146DB
:102A30008A48FEF775F900BF01218848FEF7C3F9FF
:102A40000028F9D08548FEF76DF9C0B210BD10B569
:102A500004462046FFF7E2FF10BD70B504460D4660
:102A6000FFF7BFFFC4F30740FFF7F1FFC4F30720F0
:102A7000FFF7EDFF04F0F801091DC8B2FFF7E7FF0B
:102A80002846FFF7E4FFFFF7B1FF70BD70B50446BD
:102A90000025FFF7A6FFC4F30740FFF7D8FFC4F3F4
:102AA0000720FFF7D4FF04F0F800FFF7D0FF002065
:102AB000FFF7CDFF0546FFF799FF284670BD2DE9CA
:102AC000F04104460F461546002615B964A002F0F1
:102AD000E7FAFFF786FFC4F30740FFF7B8FFC4F338
:102AE0000720FFF7B4FF04F0F801091DC8B2FFF793
:102AF000AEFF002604E0B85DFFF7A9FF701C86B2A8
:102B0000AE42F8DBFFF772FF2846BDE8F0812DE901
:102B1000F04104460F461546002615B950A002F0B4
:102B2000BFFAFFF75EFFC4F30740FFF790FFA3E093
:102B3000B0000020CC000020280000202E00002043
:102B400032000020360000203A000020460000201D
:102B500020CAB9D3C3B6A8D2E5B5C44950D0C5CFB1
:102B6000A2C5E4D6C357353530300D0A0000000049
:102B70002049502066726F6D20454550524F4D0DD3
:102B80000A00000020454550524F4DCEB4C5E4D652
:102B9000C32CCAB9D3C3B6A8D2E5B5C44950D0C571
:102BA000CFA2C5E4D6C357353530302CB2A2D0B44D
:102BB000C8EB454550524F4D0D0A0000470000201C
:102BC0002049502066726F6D20444843500D0A0022
:102BD0002E0100202044484350D7D3B3CCD0F2CEAE
:102BE000B4D4CBD0D02CBBF2D5DFB2BBB3C9B9A61D
:102BF0000D0A0000205735353030204950B5D8D661
:102C0000B72020203A2025642E25642E25642E2509
:102C1000640D0A0020573535303020D7D3CDF8D198
:102C2000DAC2EB203A2025642E25642E25642E2559
:102C3000640D0A0020573535303020CDF8B9D82042
:102C4000202020203A2025642E25642E25642E2560
:102C5000640D0A00000C01400020014000380040D3
:102C6000556E657870656374656432206C656E6757
:102C7000746820300D0A0000C4F30720FFF7E7FE58
:102C800004F0F800FFF7E3FE002605E00020FFF760
:102C9000DEFEB855701C86B2AE42F7DBFFF7A6FE2B
:102CA0002846BDE8F08110B5FFF717FDFFF700FDDE
:102CB00001210846FDF7E1FE10BD10B5FFF7F3FF57
:102CC00010BD10B5FFF7EFFF10BD10480068401CA5
:102CD0000E49086008460068B0F57A7F0BD30020E3
:102CE00008600B480068401C0949086009480078E2
:102CF000401C08490870704770B507A002F0D0F971
:102D0000002044682546A84770BD00004800002008
:102D10004C0000205000002020CFB5CDB3D6D8C63F
:102D2000F4D6D0A1ADA1AD0D0A00000010B5044647
:102D300021460020FFF791FE10BD10B58020FFF75F
:102D4000F5FF10BD0146DC4830F811007047014620
:102D5000DA4830F81100704710B5044604222146C5
:102D60009001FFF7ACFE10BD10B5044604222146C9
:102D70009001FFF7CCFE10BD10B504460422214699
:102D80004FF4A060FFF79BFE10BD10B5044606226D
:102D900021464FF41060FFF792FE10BD10B50446B7
:102DA000042221464FF47060FFF789FE10BD10B574
:102DB0000446042221464FF4A060FFF7A8FE10BD90
:102DC00010B50446062221464FF41060FFF79FFE1F
:102DD00010BD10B50446042221464FF47060FFF781
:102DE00096FE10BD10B54FF4A850FFF74FFE10BD72
:102DF00010B50446210A4FF4C850FFF72EFEE1B289
:102E00004FF4D050FFF729FE10BD10B504462146FF
:102E10004FF4D850FFF721FE10BD70B50446FFF700
:102E2000E1FF60EA0400C5B229464FF4A850FFF75D
:102E300014FE70BD70B504460D46290A41F2082201
:102E400002EB4410FFF709FEE9B241F2083202EB4F
:102E50004410FFF702FE70BD70B504460D4641F206
:102E6000086101EB44102946FFF7F7FD70BD10B56E
:102E700004464FF4027101EB4410FFF707FE10BD4A
:102E800070B504460D464FF4027101EB441029461B
:102E9000FFF7E3FD70BD10B504464FF4427101EB3E
:102EA0004410FFF7F3FD10BD70B504460025002661
:102EB00000BF42F2080101EB4410FFF7E7FD0646B0
:102EC00042F2081101EB4410FFF7E0FD00EB062091
:102ED00086B27EB142F2080101EB4410FFF7D6FD45
:102EE000054642F2081101EB4410FFF7CFFD00EB5D
:102EF000052085B2B542DCD1284670BD70B50446C8
:102F00000025002600BF42F2086101EB4410FFF7E4
:102F1000BDFD064642F2087101EB4410FFF7B6FD15
:102F200000EB062086B27EB142F2086101EB44104C
:102F3000FFF7ACFD054642F2087101EB4410FFF7C4
:102F4000A5FD00EB052085B2B542DCD1284670BD59
:102F50002DE9F04104460F4616460025A8462EB935
:102F6000214657A002F09CF8BDE8F08142F20841EA
:102F700001EB4410FFF78AFD054642F2085101EBD0
:102F80004410FFF783FD00EB052085B2280200EB1B
:102F9000441000F11008324639464046FFF78FFDD5
:102FA000A81985B2290A42F2084202EB4410FFF741
:102FB00054FDE9B242F2085202EB4410FFF74DFD16
:102FC00000BFD1E72DE9F04104460F461646002523
:102FD000A8462EB9214642A002F062F8BDE8F08171
:102FE00042F6080101EB4410FFF750FD054642F69A
:102FF000081101EB4410FFF749FD00EB052085B2F5
:10300000280200EB441000F11808324639464046C9
:10301000FFF77DFDA81985B2290A42F6080202EBE6
:103020004410FFF71AFDE9B242F6081202EB441011
:10303000FFF713FD00BFD1E72DE9F04105460E462D
:103040000027B846002433E0295D41F6087202EB00
:103050004410FFF702FD315D41F6086202EB4410B7
:10306000FFF7FBFC0020154921F81400124921F854
:103070001400B7F5804F07DC285D4FF6FF7101EAB9
:1030800080200E4921F81400B8F5804F07DC305D30
:103090004FF6FF7101EA8020074921F81400074824
:1030A00030F814000744044830F814008044641CCD
:1030B000082CC9DBBDE8F081EE000020DE00002016
:1030C00043483A20256420556E65787065637465C1
:1030D0006431206C656E67746820300D0A00000052
:1030E00043483A20256420556E65787065637465A1
:1030F0006432206C656E67746820300D0A00000031
:1031000010B504464FF4847101EB44101021FFF711
:10311000A4FC00BF4FF4847101EB4410FFF7B6FC30
:103120000028F7D14FF4027101EB4410FF21FFF7A3
:1031300094FC10BD2DE9F04104460D461646984614
:1031400005F00F0001280FD005F00F0002280BD06A
:1031500005F00F00032807D005F00F00042803D066
:1031600005F00F00052841D12046FFF7C9FF45EAC9
:103170000801082202EB4410FFF76FFC76B1310A18
:103180004FF4816202EB4410FFF767FCF1B24FF499
:10319000A16202EB4410FFF760FC15E0FE480088D6
:1031A000401CFD4908800A461288110A4FF48162CA
:1031B00002EB4410FFF751FCF74A11784FF4A1627B
:1031C00002EB4410FFF749FC4FF4847101EB44100B
:1031D0000121FFF742FC00BF4FF4847101EB441062
:1031E000FFF754FC0028F7D1012700E000273846FC
:1031F000BDE8F08170B504464FF4427101EB441014
:10320000FFF744FC132811D14FF4847101EB4410F3
:103210000221FFF722FC00BF4FF4847101EB441040
:10322000FFF734FC0028F7D1012500E000252846EF
:1032300070BD2DE9F04105460C4616462078FF2862
:1032400008D16078FF2805D1A078FF2802D1E07866
:10325000FF2808D0207828B9607818B9A07808B974
:10326000E07800B10EB900275CE00127217840F634
:10327000084202EB4510FFF7F0FB617840F6085278
:1032800002EB4510FFF7E9FBA17840F6086202EB7C
:103290004510FFF7E2FBE17840F6087202EB4510BB
:1032A000FFF7DBFB310A41F2080202EB4510FFF7A2
:1032B000D4FBF1B241F2081202EB4510FFF7CDFB4F
:1032C0004FF4847101EB45100421FFF7C6FB00BFEA
:1032D0004FF4847101EB4510FFF7D8FB0028F7D1BC
:1032E00017E04FF4427101EB4510FFF7CFFB1728B1
:1032F00000D116E02846FFF7BAFD00F0080040B103
:103300004FF4027101EB45100821FFF7A6FB0027DF
:1033100007E04FF4427101EB4510FFF7B7FB1528AA
:10332000DFD100BF3846BDE8F08110B504464FF448
:10333000847101EB44100821FFF78FFB00BF4FF4AD
:10334000847101EB4410FFF7A1FB0028F7D110BDF9
:103350002DE9F04704468846164600250027A94671
:103360002046FFF7F4FCB04204DA2046FFF7EFFCFA
:10337000074600E0374600BF2046FFF795FD81462F
:103380004FF4427101EB4410FFF780FB0546172D07
:1033900003D01C2D01D0002701E0B945ECDB00BFB4
:1033A0003A4641462046FFF7D3FD4FF4847101EBC6
:1033B00044102021FFF751FB00BF4FF4847101EB53
:1033C0004410FFF763FB0028F7D113E04FF442717C
:1033D00001EB4410FFF75AFB0546172D0AD01C2DB0
:1033E00008D06EA001F05CFE2046FFF789FE0020A9
:1033F000BDE8F0874FF4027101EB4410FFF746FB84
:1034000000F010001028E1D14FF4027101EB4410DC
:103410001021FFF722FB4FF4027101EB4410102141
:10342000FFF71BFB3846E3E72DE9F04104460E4663
:1034300015460027002D15DD2A4631462046FFF7A8
:10344000C1FD4FF4847101EB44104021FFF705FBEF
:1034500000BF4FF4847101EB4410FFF717FB002805
:10346000F7D12F463846BDE8F0812DE9F0470446F4
:10347000894616461D46089F4FF000082046FFF774
:1034800066FCB04204DA2046FFF761FC804600E0AB
:10349000B046287828B9687818B9A87808B9E878C3
:1034A00000B117B94FF0000863E0297840F60842F0
:1034B00002EB4410FFF7D1FA697840F6085202EBAC
:1034C0004410FFF7CAFAA97840F6086202EB4410EC
:1034D000FFF7C3FAE97840F6087202EB4410FFF7F1
:1034E000BCFA390A41F2080202EB4410FFF7B5FAC0
:1034F000F9B241F2081202EB4410FFF7AEFA42466D
:1035000049462046FFF724FD4FF4847101EB441037
:103510002021FFF7A2FA00BF4FF4847101EB4410A1
:10352000FFF7B4FA0028F7D112E04FF4027101EB73
:103530004410FFF7ABFA00F0080048B14FF40271F5
:1035400001EB44101821FFF788FA0020BDE8F0874E
:103550004FF4027101EB4410FFF798FA00F01000ED
:103560001028E2D14FF4027101EB44101021FFF753
:1035700074FA4046EAE72DE9FC5F05468A46914623
:103580001E46DDF8308000270024A346B9F1000F65
:1035900071DD42F608010BE03E00002053454E4429
:1035A0005F4F4B2050726F626C656D21210D0A00D8
:1035B00001EB4510FFF76AFA044642F6081101EBE9
:1035C0004510FFF763FA00EB042084B2200200EB01
:1035D000451000F1180B082101EB4510FFF756FAD2
:1035E00000F00700022804D0032845D0042878D131
:1035F00078E0082269465846FFF789FA04F1080086
:1036000084B29DF8000030709DF8010070709DF844
:103610000200B0709DF80300F0709DF80400A8F857
:1036200000009DF8050098F8001000EB0120A8F8B4
:1036300000009DF806709DF8070000EB072087B298
:10364000200200EB451000F1180B3A46514658464F
:10365000FFF75DFAE01984B2210A42F6080202EB94
:103660004510FFF7FAF9E1B242F6081202EB4510F5
:10367000FFF7F3F96AE07AE0062269465846FFF759
:1036800046FAA01D84B29DF8000030709DF801003C
:1036900070709DF80200B0709DF80300F0709DF806
:1036A00004709DF8050000EB072087B2200200EBB4
:1036B000451000F1180B3A4651465846FFF727FAD5
:1036C000E01984B2210A42F6080202EB4510FFF726
:1036D000C4F9E1B242F6081202EB4510FFF7BDF95A
:1036E00034E032E0022269465846FFF710FAA01C87
:1036F00084B29DF800709DF8010000EB0720801E49
:1037000087B240F2EA50874204DD1AA001F0C8FCFB
:1037100000BFFEE7200200EB451000F1180B3A460F
:1037200051465846FFF7F3F9E01984B2210A42F6F0
:10373000080202EB4510FFF790F9E1B242F60812D9
:1037400002EB4510FFF789F900E000BF00BF4FF41E
:10375000847101EB45104021FFF77FF900BF4FF462
:10376000847101EB4510FFF791F90028F7D1384635
:10377000BDE8FC9F646174615F6C656E206F766567
:103780007220313531340D0A000000004FF0E02185
:10379000096921F004014FF0E0221161C21700EB2A
:1037A0005272C2F3C702FE4B1A701946097801EB38
:1037B0004102C2EBC1114FF6FF7202EAC101F94AA0
:1037C000118070470146F74A12884A434FF0E023C0
:1037D0005A6100229A6101221A6100BF4FF0E02273
:1037E000106900F001021AB100F48032002AF5D00D
:1037F00000224FF0E0231A619A61704710B5044629
:1038000004E04FF47A70FFF7DDFF641E002CF8D15E
:1038100010BD0146E24A12784A434FF0E0235A6154
:1038200000229A6101221A6100BF4FF0E022106964
:1038300000F001021AB100F48032002AF5D0002213
:103840004FF0E0231A619A6170470146302905DB89
:10385000392903DCA1F13000C0B27047612905DBD2
:10386000662903DCA1F15700C0B2F6E7412905DB68
:10387000462903DCA1F13700C0B2EEE70846ECE7C9
:1038800030B502460B46002405E012F8010BFFF7A5
:10389000DCFF04FB030410780028F6D1A0B230BD91
:1038A00030B502460B46002405E012F8010BFFF785
:1038B000CCFF04FB030410780028F6D1204630BD6D
:1038C0002DE9F04104460D461646701EC7B220226F
:1038D0003146284601F0C4F800BF0A2094FBF0F1FD
:1038E00000FB11403030C2B23846791ECFB22A54A4
:1038F0000A2094FBF0F080B2041EEEDCBDE8F081FB
:103900002DE9F04104460F46904626460CB120783A
:1039100010B90020BDE8F0810BE03078FFF795FF8B
:103920000546002D03DBBD4201DA761C01E00020D4
:10393000F0E730780028F0D1B9B22046FFF7A0FFB9
:10394000C8F800000120E5E710B50B46002104E0AF
:10395000445C9C4200D14254491C445C002CF7D189
:1039600010BD014600200A06100C40EA11207047E5
:10397000014600200806C1F3072240EA0240C1F3D5
:10398000074240EA022040EA116070472DE9F04703
:1039900081460E4617461D463146484601F072F8EC
:1039A0000446304601F08CF804443946204601F0C4
:1039B00069F88246AAEB04001FFA80F842462146C5
:1039C000284601F071F8002005F80800BDE8F087EE
:1039D0002DE9F04188B006460F463146684601F0B1
:1039E00083F86C4600251BE06FA1204601F086F8A5
:1039F00004462078302809D16078782806D1102133
:103A0000A01CFFF73DFF00F0FF0805E00A2120465B
:103A1000FFF736FF00F0FF0807F8058000246D1C53
:103A2000042DE1DB08B0BDE8F0811CB5044620217F
:103A30005E4801F01CF8E0B2C4F30721220EC4F383
:103A40000743CDE900105AA1584801F039FB574807
:103A50001CBD1CB504461021584801F008F8E0B21E
:103A6000C4F30721220EC4F30743CDE9001054A18B
:103A7000524801F005FB51481CBDF0B58FB0064619
:103A80000F4601AC314601A801F02EF800252AE0CE
:103A900045A1204601F032F8044614B900200FB0C9
:103AA000F0BD207830280AD16078782807D10EAA96
:103AB0001021A01CFFF724FF48B90020EFE70EAA51
:103AC0000A212046FFF71CFF08B90020E7E70E98FF
:103AD00078550E98002802DB0E98FF2801DD0020A3
:103AE000DDE700246D1C042DD2DB0120D7E700B5F3
:103AF00003461846FFF735FF00BD00B503461846DC
:103B0000FFF736FF00BD10B504462046FFF7EFFF74
:103B100010BD10B504462046FFF7EFFF10BDF0B50D
:103B200002460D46C5F34F06002400210EE012F8B0
:103B300011304FF6FF7707EA0323012707EB410710
:103B4000D75D1F44BBB21C444F1CB9B2B142EEDB7F
:103B500005F001071FB112F8113004EB0324A0B2E5
:103B600000EB1447FF43B8B2F0BDF1B500246D4639
:103B700000BF30E004F5A060FEF788FF295D00EA91
:103B8000010704F57060FEF781FF064604F5A060AA
:103B9000FEF77CFF0640B7421CD00120F8BD0000B4
:103BA00062000020640000202E000000FE000020C3
:103BB00025642E25642E25642E2564001E01002018
:103BC000253033642E253033642E253033642E2582
:103BD00030336400641C042CCCDB0020F8BD0000F2
:103BE0000020FE490860FE490860FC480068401D4E
:103BF000FC4908600020FC490870704710B586B089
:103C0000FAA00068059000244FF40971F848006894
:103C100000F02DFF0120F64909680870F449096891
:103C200048700620F249096888700020F049096848
:103C3000C870F0480068FFF760FFED490968486008
:103C40000020FFF754FFEA49096808814FF400405B
:103C5000FFF74DFFE64909684881E74800680078AA
:103C6000E34909680877E44800684178E04800685B
:103C70004177E14800688178DD4800688177DE4857
:103C80000068C178DA480068C177DB4800680179CC
:103C9000D748006880F82010D74800684179D44898
:103CA000006880F8211063222146641CD048006817
:103CB000EC30425482222146641CCD480068EC302E
:103CC000425453222146641CC9480068EC304254D7
:103CD00063222146641CC6480068EC3042543522F9
:103CE0002146641CC2480068EC304254012221463F
:103CF000641CBF480068EC3042542146641CBC4838
:103D00000068EC3042543D222146641CB8480068EB
:103D1000EC30425407222146641CB5480068EC3060
:103D2000425401222146641CB1480068EC304254E0
:103D3000B148006802782146641CAD480068EC3048
:103D40004254AD48006842782146641CA848006887
:103D5000EC304254A848006882782146641CA4488C
:103D60000068EC304254A4480068C2782146641CC4
:103D70009F480068EC3042549F4800680279214611
:103D8000641C9B480068EC3042549B4800684279B0
:103D90002046611C8CB296490968EC310A540C2209
:103DA0002046611C8CB292490968EC310A54924851
:103DB00000684079904909680979CDE900108E487A
:103DC0000068C3788DA28FA102A801F079F902A83A
:103DD00000F076FEC2B22046611C8CB284490968AC
:103DE000EC310A5482490968EC31081902A900F043
:103DF0007BFE02A800F064FE204484B237222046F5
:103E0000611C8CB27A490968EC310A5406222046BA
:103E1000611C8CB276490968EC310A5401222046B3
:103E2000611C8CB272490968EC310A5403222046A5
:103E3000611C8CB26E490968EC310A540622204696
:103E4000611C8CB26A490968EC310A540F22204681
:103E5000611C8CB266490968EC310A543A2220464A
:103E6000611C8CB262490968EC310A543B2220463D
:103E7000611C8CB25E490968EC310A54FF2220466D
:103E8000611C8CB25A490968EC310A54432005ABD5
:103E90004FF409720090564801680320FFF7E5FAD5
:103EA00006B010BD10B586B000244FF4097150481B
:103EB000006800F0DCFD01204D49096808704C499C
:103EC0000968487006204A490968887000204849F6
:103ED0000968C87047480068FFF70FFE4449096841
:103EE00048600020FFF703FE4149096808814A48FD
:103EF0000078032807DA4FF40040FFF7F8FD3C494B
:103F00000968488109E00020394909684881384832
:103F10000068424909680968C16035480068364947
:103F200009680A68C2618988018463222046611C8D
:103F30008CB22F490968EC310A5482222046611C58
:103F40008CB22B490968EC310A5453222046611C7B
:103F50008CB227490968EC310A5463222046611C5F
:103F60008CB223490968EC310A5435222046611C81
:103F70008CB21F490968EC310A5401222046611CA9
:103F80008CB21B490968EC310A5403222046611C9B
:103F90008CB217490968EC310A543D222046611C55
:103FA0008CB213490968EC310A5407222046611C7F
:103FB0008CB20F490968EC310A5401222046611C79
:103FC0008CB20B490968EC310A540B48006802783E
:103FD0002046611C8CB20649096821E04C00002093
:103FE00098000020940000208D000020FFFFFFFFBC
:103FF000A4000020A00000206800002057353530C4
:1040000030000000252E34732D25303258253032F3
:1040100058253032580000008C0000207C00002021
:10402000EC310A54FE48006842782046611C8CB28C
:10403000FC490968EC310A54F94800688278204646
:10404000611C8CB2F7490968EC310A54F4480068E5
:10405000C2782046611C8CB2F2490968EC310A54DE
:10406000EF48006802792046611C8CB2ED4909686E
:10407000EC310A54EA48006842792046611C8CB24F
:10408000E8490968EC310A54E748007803286BDAFC
:1040900032222046611C8CB2E2490968EC310A5494
:1040A00004222046611C8CB2DE490968EC310A54B6
:1040B000DE48006802782046611C8CB2D949096844
:1040C000EC310A54D948006842782046611C8CB211
:1040D000D4490968EC310A54D448006882782046F3
:1040E000611C8CB2CF490968EC310A54CF48006892
:1040F000C2782046611C8CB2CA490968EC310A5466
:1041000036222046611C8CB2C6490968EC310A543B
:1041100004222046611C8CB2C2490968EC310A5461
:10412000C34802782046611C8CB2BE490968EC3154
:104130000A54BF4842782046611C8CB2B9490968CC
:10414000EC310A54BA4882782046611C8CB2B549D9
:104150000968EC310A54B648C2782046611C8CB21A
:10416000B0490968EC310A540C222046611C8CB21B
:10417000AC490968EC310A54A94800684079A8495B
:1041800009680979CDE90010A5480068C378AFF245
:104190009412AFF2901102A800F092FF02A800F072
:1041A0008FFCC2B22046611C8CB29E490968EC317A
:1041B0000A549C490968EC31081902A900F094FCE2
:1041C00002A800F07DFC204484B237222046611C06
:1041D0008CB294490968EC310A5408222046611CCB
:1041E0008CB290490968EC310A5401222146601CC6
:1041F00084B28C480068EC30425403222046611C93
:104200008CB288490968EC310A5406222046611CA8
:104210008CB284490968EC310A540F222046611C93
:104220008CB280490968EC310A543A222046611C5C
:104230008CB27C490968EC310A543B222046611C4F
:104240008CB278490968EC310A541F222046611C5F
:104250008CB274490968EC310A5421222146601C51
:1042600084B270480068EC304254FF222146601C42
:1042700084B26C480068EC3042546B4800780328E4
:1042800004DA042105A800F0EBFB02E068480068AE
:104290000590432005AB4FF4097200906148016816
:1042A0000320FFF7E2F806B010BD7CB505460024F8
:1042B0004FF409715B48006800F0D9FB01205949AF
:1042C0000968087057490968487006205549096807
:1042D0008870002053490968C87056480068FFF785
:1042E0000CFC5049096848600020FFF700FC4D496C
:1042F0000968088100204B490968488149480068DD
:10430000474909680A68C261898801846322214695
:10431000641C44480068EC30425482222146641CEC
:1043200040480068EC30425453222146641C3D480A
:104330000068EC30425463222146641C394800680E
:10434000EC30425435222146641C36480068EC307B
:10435000425401222146641C32480068EC30425429
:104360000DB9072200E004222046611C8CB22D49C1
:104370000968EC310A543D222046611C8CB229495F
:104380000968EC310A5407222046611C8CB2254989
:104390000968EC310A5401222046611C8CB2214983
:1043A0000968EC310A541E48006802782046611CF6
:1043B0008CB21C490968EC310A54194800684278EB
:1043C0002046611C8CB217490968EC310A54144824
:1043D000006882782046611C8CB212490968EC3171
:1043E0000A540F480068C2782046611C8CB20D49FF
:1043F0000968EC310A540A48006802792046611CB9
:104400008CB208490968EC310A54054800684279C1
:104410002046611C8CB203490968EC310A540BE058
:1044200068000020A40000208C0000207C000020F8
:1044300080000020A000002036222046611C8CB2A3
:10444000FA490968EC310A5404222046611C8CB2F6
:10445000F6490968EC310A54F54802782046611C97
:104460008CB2F2490968EC310A54F148427820468E
:10447000611C8CB2ED490968EC310A54EC48827831
:104480002046611C8CB2E9490968EC310A54E848BD
:10449000C2782046611C8CB2E4490968EC310A54A8
:1044A000002D37D032222046611C8CB2DF490968CA
:1044B000EC310A5404222046611C8CB2DB490968A5
:1044C000EC310A54DB48006802782046611C8CB24B
:1044D000D6490968EC310A54D6480068427820462B
:1044E000611C8CB2D1490968EC310A54D14800688A
:1044F00082782046611C8CB2CC490968EC310A54A0
:10450000CC480068C2782046611C8CB2C749096853
:10451000EC310A54FF222046611C8CB2C349096861
:10452000EC310A5425B1042101A800F099FA02E007
:10453000BF4800680190432001AB4FF4097200901E
:10454000BA4801680320FEF790FF7CBD2DE9FF47C4
:1045500005464FF0000901A802AB2A460090B34877
:1045600001680320FFF707F88046B048006800782C
:10457000022803D1BDF80400432803D0002004B072
:10458000BDE8F0870622AC480168A84800681C30E6
:1045900000F09DFA40B9A9480068FFF7AEFAA349B8
:1045A00009684968884201D00020E8E7A04800680F
:1045B00058B1A34800680299884206D09C48006818
:1045C0000299884201D00020D9E79A4800689749AB
:1045D000096809690160002794480468F034A8F16B
:1045E000F000061951E014F8011B33292AD007DC2A
:1045F00071B1012911D0032916D0062940D11AE042
:10460000352906D0362925D0FF2939D13846B6E7D5
:1046100039E014F8019B277835E014F8019B8948AC
:104620000068216801602EE014F8019B864800684C
:104630002168016027E014F8019B84480068216824
:10464000016020E014F8019B2068FFF762FA8049BE
:10465000086018E014F8019B7548006848B1784874
:1046600000680299884204D0714800680299884223
:1046700005D16F482168016071480299016002E02C
:1046800014F8019B00BF00BF4C44B442ABD30020E0
:1046900075E710B56F480078032826DA6E48006881
:1046A0006E49096888422AD900206B49086008468B
:1046B0000068401D6949086066480078401C6549EB
:1046C000087067480078012804D0022805D0042823
:1046D00009D105E0FFF792FA06E0FFF7E3FB03E0FC
:1046E000FFF7E0FB00E000BF09E0FFF779FA0120E7
:1046F0005C490870FFF782FA01205949087010BD23
:1047000008B541F2883000904A48112256A103684A
:104710000320FEF7AAFE20B10120FFF7C6FD00200E
:1047200008BD0120FCE770B5054600242846FEF7C9
:10473000B2FB48B12846FEF7E1FB061E0DDD304610
:10474000FFF704FF044608E000234422022103206F
:10475000FEF7F0FC08B9012070BD4148007805283B
:1047600063D2DFE800F003111E39570000203D49F5
:104770000870FFF735FAFFF741FA00203F4908704B
:1047800001203749087093E0022C07D1FFF728FA7F
:10479000FFF788FB02203249087001E0FFF779FF3C
:1047A00086E0052C0DD1FFF71BFAFFF7A9FF18B122
:1047B00003202B490870CFE7012029490870042005
:1047C000CAE7062C05D1FFF70BFA0120244908702F
:1047D00001E0FFF75EFF6BE01D480068401CC0B1C0
:1047E0001D4800681A490968B0EB510F11D900241F
:1047F0002348104909680968016010480068401C96
:104800000E490860FFF74EFB042015490870FFF7BA
:10481000E7F94DE0052C3CD1042206480168184810
:1048200000F055F970B3032096E73DE0A4000020A6
:10483000800000207C00002068000020A0000020F4
:10484000840000206C000020700000207400002014
:10485000900000208D0000204C00002094000020DB
:104860008C0000208E000020434845434B5F495098
:104870005F434F4E464C4943540000009C000020CB
:1048800088000020FFE7FFF7ABF903204D490870CF
:1048900009E0062C05D1FFF7A3F90120494908706A
:1048A00001E0FFF7F6FE03E000204649087000BF74
:1048B00000BF45480078012804D100204149087014
:1048C000022049E7002047E7404801680068401C93
:1048D0003E4A1060B1F57A7F07D900201146086082
:1048E0003B480068401C3A49086070471FB50020EB
:1048F000039038483849086038480021016038483A
:10490000016038480160FEF718FA03A8FEF734FA90
:1049100003A8FEF721FA03A8FEF740FA3248006820
:1049200040793149096809792F4A1268D278CDE96E
:10493000002102902C48006883782B480068427858
:1049400029480068017829A000F0AAFB00201D4931
:1049500008701FBD10B5002401202D490870FEF716
:10496000ACF92C480078012804D1FFF7BFFF0020E4
:10497000284908700320FFF7D6FE044634B1022C04
:1049800005D0032C04D0042C18D10AE017E016E05F
:10499000012021490870FDF7DEFE20A000F080FB19
:1049A0000DE026A000F07CFB00200649087029A03D
:1049B00000F076FB00201849087000E000BF00BF3F
:1049C00010BD00008C0000208E0000209800002008
:1049D0004C00002078563412A000002088000020EF
:1049E0008000002084000020680000206D61633D8D
:1049F000253032783A253032783A253032783A25E7
:104A00003032783A253032783A253032780D0A0043
:104A1000460000209D0000204700002020D2D1B495
:104A2000D344484350B7FECEF1C6F7B3C9B9A6BBCD
:104A3000F1B5C34950B5D8D6B70D0A0020B4D34458
:104A4000484350BBF1C8A14950B5D8D6B7CAA7B0A2
:104A5000DC0D0A0020D6D8CAD4D6D00D0A0000003A
:104A6000D2B201E000F8012B491EFBD270470022B0
:104A7000F6E710B513460A4604461946FFF7F0FF5D
:104A8000204610BD30B505462A460B4612F8010BEC
:104A900013F8014B08B1A042F8D01CB1002802D095
:104AA0006D1CF1E7284630BD10B5044604E00B78D4
:104AB00000F8013B03B1491C521EF8D2204610BD3C
:104AC000421C10F8011B0029FBD1801A704730B539
:104AD00004460020034600E05B1C934203D2E05CE6
:104AE000CD5C401BF8D030BD034611F8012B00F817
:104AF000012B002AF9D118467047000070B50F4D00
:104B000000B92868002412E00A4602E09E4203D061
:104B1000521C1378002BF9D1DAB2224305D02BB105
:104B200024B1002100F8011B04E00446401C067873
:104B3000002EE9D12860204670BD0000A8000020AA
:104B400030B50B46014600202022012409E021FA5D
:104B500002F59D4205D303FA02F5491B04FA02F55A
:104B60002844151EA2F10102F1DC30BD2DE9F05FF1
:104B70000546002092469B468846064681464024CC
:104B80001BE0284641464746224600F0FAF95346C4
:104B90005A46C01A914110D311461846224600F0D9
:104BA000E1F92D1A67EB01084F462246012000214A
:104BB00000F0D8F917EB00094E41201EA4F10104C2
:104BC000DFDC484631462A464346BDE8F09F2DE9E2
:104BD000FE4F804681EA0300C00F0C46009021F092
:104BE000004123F00045B8EB0200A94105D2404640
:104BF000214690461C460B46024623F000401043D7
:104C000047D0270DC7F30A00C3F30A510290401A98
:104C1000019040286BDAC3F3130040F4801B009826
:104C2000924620B10023D2EB030A63EB0B0B0198F1
:104C30005946C0F14002504600F094F906460D4630
:104C400050465946019A00F0ACF910EB080061415A
:104C5000002487EA115284EAE7731A4340D0009A8D
:104C600062B3019A012A4FEA075215DC001B61EB7F
:104C700002014FF0004202EA0752CDE90042001C57
:104C800041F5801132462B4600F0ACF903B0BDE887
:104C9000F08F40462146F9E7001B61EB0201001C42
:104CA00041F5801300185B412018A2F5001747EB6F
:104CB000030140EAD570B6196D4111E06D084FEA65
:104CC000360645EAC0754FEA0752001B61EB020148
:104CD000001C41F5801149084FEA3000001951418C
:104CE00032462B4603B0BDE8F04F00F06CB9009897
:104CF000012240000023D0EB020263EBE073009836
:104D000021464FEAE074B8EB000061EB0401E9E7EB
:104D100083F000435BE781F0004158E72DE9FE4F47
:104D200081EA030404F0004421F0004100944FF0B4
:104D3000000B23F0004350EA01045ED052EA030462
:104D40005BD0C3F30A54C1F30A552C44A4F2F334E4
:104D50000194A0FB0254C1F3130141F48011C3F389
:104D6000130343F4801301FB024400FB034E840A47
:104D7000970A44EA815447EA8357A4FB07680295DF
:104D80008D0A05FB07854FEA932C04FB0C5427057D
:104D9000029D4FEA065847EA1637B5EB08056EEB59
:104DA000070C870E920E47EA811742EA8312A7FB8F
:104DB0000201B6EB0B0164EB00042B0D43EA0C334C
:104DC0005E1844EB1C50DA465146E7FB0201C5F37E
:104DD00013044FEA0B3343EA14534FEA0432019CA5
:104DE00043EA0603A4F10C040294009CCDE900B44C
:104DF00000F0F8F803B0BDE8F08F00200146F9E7B5
:104E00002DE9F04D81EA030404F0004B21F0004548
:104E100014464FF0000A23F0004150EA050220D06A
:104E200054EA01021DD0C5F30A570246C5F3130325
:104E3000C1F31300C1F30A5640F4801543F4801304
:104E4000A7EB0608101BD64608F2FD3873EB0500E9
:104E500002D308F1010801E092185B41B8F1000F9C
:104E600003DA00200146BDE8F08D00204FF48011E8
:104E7000064684460EE0171B73EB050705D3121B8D
:104E800063EB050306434CEA010C49084FEA300086
:104E900092185B4150EA0107EDD152EA030012D0AB
:104EA00082EA040083EA0501084305D0101BAB41E8
:104EB00006D20122002306E000224FF0004302E068
:104EC0006FF0010253101AEB06004CEB085110EB87
:104ED0000A0041EB0B01BDE8F04D00F074B8C1F3DE
:104EE0000A52C1F3130140F2FF3341F480119A4298
:104EF00002DA00200146704740F233439A42A2F2A0
:104F0000334202DC524200F03CB800F02BB8000003
:104F100030B5041E71F1000404DB4FF00044404240
:104F200064EB0101141E73F1000405DB1C464FF015
:104F30000043524263EB0403994208BF904230BDE4
:104F4000064C074D06E0E06840F0010394E80700D6
:104F500098471034AC42F6D3FBF7EEF8FC5D00083E
:104F60001C5E0008202A04DB203A00FA02F100202F
:104F700070479140C2F1200320FA03F31943904097
:104F80007047202A04DB203A21FA02F00021704702
:104F900021FA02F3D040C2F12002914008431946A1
:104FA0007047202A06DBCB17203A41FA02F043EA89
:104FB000E07306E041FA02F3D040C2F120029140D2
:104FC00008431946704710B5141E73F1000408DA3F
:104FD000401C41F1000192185B411A4301D120F0BD
:104FE000010010BD2DE9F04D92469B4611B1B1FA7A
:104FF00081F202E0B0FA80F220329046FFF7B2FF71
:1050000004460F4640EA0A0041EA0B0153465A465D
:10501000084313D0114653EA010019D0C8F14002E9
:105020005046FFF7AEFF05460E46504659464246EB
:10503000FFF798FF084305D0012004E020463946D9
:10504000BDE8F08D0020054346EAE0762C43374367
:105050000A986305E40AA0EB08000022FD0A44EA6E
:1050600047540A3002D500200146E9E7010510192E
:105070006941DDE9084500196941BDE8F04DA2E745
:105080000FB4054B10B503A9044A029800F000FBC9
:1050900010BC5DF814FB0000C7210008AC00002024
:1050A0000FB4054B10B503A9044A029800F0EEF8BE
:1050B00010BC5DF814FB0000C7210008AC00002004
:1050C0000FB4084B10B504A902AA039800F0DEF84B
:1050D000044602A9002000F087FE204610BC5DF8BF
:1050E00014FB0000E95D000802E008C8121F08C1B7
:1050F000002AFAD170477047002001E001C1121F59
:10510000002AFBD1704700002DE9FF5F82B000212B
:10511000DDE90430020DDDF840B0034318D044F659
:105120001050A2F2FF3242431514119801281FD0EB
:10513000A5EB0B00401C5FEA000A4FF000064E4F43
:10514000DFF83891B046504615D5CAF1000413E097
:10515000119801244AA3012801D16FEA0B0102989A
:10516000119AC0E90031C0E9024206B0BDE8F09FE3
:10517000CBF10000DFE704460021404A491842EB2A
:105180000450CDE9001012E0E00707D032463B465C
:1051900040464946FFF7C2FD8046894632463B46B7
:1051A00010461946FFF7BAFD06460F466410002C5C
:1051B000EAD1DDE90401DDE90023BAF1000F06DAE6
:1051C000FFF7ACFD42464B46FFF7A8FD05E0FFF7B1
:1051D00017FE42464B46FFF713FE04460E460022DA
:1051E000284BFFF795FE03D84FF0FF30014607E04C
:1051F0000022254B20463146FFF7E9FCFFF76FFE02
:10520000102409E0002C0ADB0A220023FFF7AEFC81
:10521000039B30321A55641E50EA0102F2D1641C1D
:10522000039AC4F111031444119A012A03D00122F4
:1052300008430DD10AE0084304D000204FF0110BC1
:10524000119072E7A3EB0B056D1E0DE05B4504DDCD
:105250004FF0000205F1010504E003DA4FF000020F
:10526000A5F10105002AECD002981199C0E902319C
:10527000C0E9004579E70000000014400000F03F5D
:10528000300000000000F0430000E03F2DE9FF4F38
:105290008DB00F460546002606E025280BD0DDE937
:1052A0000F1290476D1C761C28780028F5D111B09C
:1052B0003046BDE8F08F0024A246A1460122E9490C
:1052C00000E0044315F8013F203B02FA03F00842D6
:1052D000F7D128782A2810D06FF02F022878A0F173
:1052E0003001092914D80AEB8A0102EB410144F08C
:1052F000020400EB010A6D1CF0E701CF5FEA000A2F
:1053000003D544F40054CAF1000A44F002046D1CB1
:1053100028782E2817D115F8010F44F004042A2804
:105320000ED06FF02F022878A0F1300109290AD899
:1053300009EB890102EB410100EB01096D1CF2E769
:1053400057F8049B6D1C28786C280FD006DC4C287D
:1053500017D068280DD06A2814D104E0742810D022
:105360007A280FD10DE044F400140AE044F48014CC
:1053700001E044F440146978814202D104F58014BC
:105380006D1C6D1C28786E281ED00CDC632830D074
:1053900004DC00288BD0582811D19FE0642867D006
:1053A00069280CD164E073282DD004DC6F2872D0FA
:1053B000702804D194E075286ED078286DD0DDE98E
:1053C0000F129047761C4BE1C4F30250022806D01E
:1053D000032809D0042801CF09D0066040E101CF9D
:1053E000F117C0E900613BE101CF068038E10670AA
:1053F00036E117F8040B8DF8000000208DF801004D
:10540000EB46012003E057F804BB4FF0FF30610783
:105410004FF0000102D40DE008F101018846494532
:105420000FDA8045F8DB1BF808100029F4D108E0FA
:1054300008F1010188468142FADB1BF808100029B7
:10544000F6D1DDE90F23AAEB08008146214600F0E2
:105450009DFC304400EB080604E0DDE90F121BF868
:10546000010B9047B8F10108F7D221464846F2E017
:105470000A21C4F302524FF0000B0891022A04D013
:1054800001CFC117032A09D00AE0FF1D27F0070743
:10549000F7E8020108E02CE01EE01FE000B2C117AF
:1054A000042A01D140B2C117021E71F1000206DACE
:1054B0000023D0EB030063EB01012D2202E0220563
:1054C00004D52B228DF82420012203E0E20701D02D
:1054D0002022F7E7904653E00A210BE0102109E073
:1054E00010214FF0000B44F004044FF0080908911C
:1054F00003E008214FF0000B0891C4F30252022A86
:1055000004D001CF0021032A06D006E0FF1D27F0BA
:105510000707F7E8020103E080B2042A00D1C0B215
:105520004FF0000822072BD52A78702A07D0DDF823
:1055300020C08CF0100C5CEA0B0C05D00EE0402271
:105540008DF82420012208E050EA010306D0302320
:105550008DF824308DF8252002229046089B83F098
:10556000080353EA0B030BD150EA010201D1620791
:1055700006D530228DF824204FF00108A9F1010949
:105580002A78582A04D038A20B9208AA0A920BE073
:105590003AA2F9E75B46089AFFF7E8FA0B9B9B5C97
:1055A0000A9A521E0A92137050EA0102F2D10A9826
:1055B000ADEB000000F1200B600702D524F480342D
:1055C00001E04FF00109D94502DDA9EB0B0000E035
:1055D000002000EB0B0141440890AAEB010AE00314
:1055E00006D4DDE90F232146504600F0CFFB0644E8
:1055F0004FF0000908E009A911F80900DDE90F12D0
:10560000904709F10109761CC145F4DBE0030CD594
:10561000DDE90F232146504600F0B8FB064404E0C4
:10562000DDE90F1230209047761C0899481E08903B
:105630000029F5DC08E00A980A990078491C0A91CB
:10564000DDE90F129047761CBBF10001ABF1010BB5
:10565000F1DC21465046DDE90F2300F073FB0644E0
:105660006D1C21E6092801003031323334353637DC
:10567000383961626364656600000000303132339E
:10568000343536373839414243444546000000003E
:105690002DE9FF4F95B09A46884606460025EEE173
:1056A000252877D100242746F94A0121039400E0F8
:1056B000044316F8013F203B01FA03F01042F7D1F2
:1056C00030782A2811D06FF02F033078A0F1300203
:1056D000092A16D8039A44F0020402EB820203EB73
:1056E00042021044761C0390EFE758F8042B039213
:1056F000002A03DA504244F40054039044F00204B8
:10570000761C30782E2816D116F8010F44F00404C8
:105710002A280DD06FF02F023078A0F13003092B2A
:1057200009D807EB870302EB4303C718761CF3E79E
:1057300058F8047B761C30786C280FD006DC4C2897
:1057400017D068280DD06A2814D104E0742810D02E
:105750007A280FD10DE044F400140AE044F48014D8
:1057600001E044F440147278824202D104F58014BE
:10577000761C761C307866280BD013DC582877D03E
:1057800009DC002875D04528F6D04628F4D04728F3
:105790001AD193E118E0632835D0642879D06528C0
:1057A00012D18BE1702873D008DC6728F1D069280A
:1057B0006FD06E280DD06F2806D1ACE073282CD0A6
:1057C000752874D0782853D05246179990476D1C8D
:1057D00054E1C4F30250022809D003280DD0D8F8B0
:1057E000001004280DD00D6008F1040846E1D8F837
:1057F0000010EA17C1E90052F6E7D8F800100D8052
:10580000F2E70D70F0E718F8041B8DF80010002087
:105810008DF80100EB46012003E058F804BB4FF07F
:10582000FF3061074FF0000102D40DE009F10101E2
:105830008946B9420FDA8145F8DB1BF809100029C7
:10584000F4D108E009F1010189468142FADB1BF835
:1058500009100029F6D103985346A0EB0907214609
:105860003846179A00F0A9FA284400EB090507E02A
:1058700044E008E10DE01BF8010B524617999047F0
:10588000B9F10109F7D2534621463846179AF2E09A
:1058900039E00A21C4F302524FF0000B0091022AB2
:1058A00006D058F8040BC117032A09D00AE023E0F8
:1058B00008F1070020F00702F2E80201904605E037
:1058C00000B2C117042A01D140B2C117002906DA7B
:1058D0000A460021404261EB02012D2202E022052E
:1058E00004D52B228DF80420012203E0E20701D029
:1058F0002022F7E7914657E00A2100E010214FF0FF
:10590000000B00910BE010214FF0000B44F0040459
:105910000827009103E008204FF0000B0090C4F32B
:105920000252022A05D058F8040B0021032A08D09D
:1059300008E008F1070020F00702F2E802019046B3
:1059400003E080B2042A00D1C0B24FF00009220760
:105950002AD53278702A07D0DDF800C08CF0100C00
:105960005CEA0B0C05D00EE040228DF804200122E9
:1059700008E050EA010306D030238DF804308DF89A
:10598000052002229146009B83F0080353EA0B0393
:105990000AD150EA010201D1620705D530228DF803
:1059A00004204FF001097F1E3278582A04D039A212
:1059B0000C920CAA02920BE03BA2F9E75B46009A1C
:1059C000FFF7D4F80C9B9B5C029A521E0292137054
:1059D00050EA0102F2D1029804A9081A00F1200B42
:1059E000600702D524F4803400E001275F4502DD22
:1059F000A7EB0B0000E0002000EB0B0100900398E8
:105A00004944401A0390E00306D453462146179AAE
:105A1000039800F0D2F90544002706E001A8524699
:105A2000C05D179990476D1C7F1C4F45F6DBE00366
:105A30000CD553462146179A039800F0BEF9054449
:105A400004E030205246179990476D1C0099481E7B
:105A500000900029F5DC08E002980299524600788F
:105A6000491C0291179990476D1CBBF10001ABF1E5
:105A7000010BF1DC5BE100F077F90544761C30782E
:105A800000287FF40DAE19B02846BDE8F08F000065
:105A90000928010030313233343536373839616204
:105AA00063646566000000003031323334353637C8
:105AB000383941424344454600000000600700D4A5
:105AC000062708F1070020F00700F0E802238046CF
:105AD00003F0004C5FEA0C0001D097A009E020051C
