:020000040800F2
:1000000030040020490100083502000831020008D0
:100010003302000891010008FD0400080000000000
:10002000000000000000000000000000E5020008E1
:100030009301000800000000370200089103000847
:100040006301000863010008630100086301000800
:1000500063010008630100086301000863010008F0
:1000600063010008630100086301000863010008E0
:1000700063010008630100086301000863010008D0
:1000800063010008630100086301000863010008C0
:1000900063010008630100086301000863010008B0
:1000A00063010008630100086301000863010008A0
:1000B0006301000863010008630100086301000890
:1000C0006301000863010008630100086301000880
:1000D0006301000863010008630100086301000870
:1000E0006301000863010008630100086301000860
:1000F0006301000863010008630100086301000850
:10010000630100086301000863010008630100083F
:100110006301000863010008E503000863010008AB
:10012000630100086301000863010008630100081F
:10013000DFF810D000F01AF800480047DD0500088D
:10014000AFF300803004002006488047064800478F
:10015000FEE7FEE7FEE7FEE7FEE7FEE7FEE7FEE777
:10016000FEE7FEE79503000831010008064C074D45
:1001700006E0E06840F0010394E807009847103477
:10018000AC42F6D3FFF7D8FF7806000898060008BF
:10019000FEE77047F0B5CC78002204F00F03E406C8
:1001A00001D58C7823430C784FF00F0C14F0FF0F1F
:1001B0004FF0010E1BD005680E880EFA02F426409F
:1001C000A64210D196000CFA06F725EA070703FAB3
:1001D00006F5CE783D43282E02D0482E02D002E00C
:1001E000446100E00461521C082AE5D305600A88D6
:1001F000FF2A1CD94468002202F108060EFA06F50F
:100200000E882E40AE420ED196000CFA06F7BC4383
:1002100003FA06F7CE783C43282E00D14561CE780C
:10022000482E00D10561521C082AE5D34460F0BD78
:10023000FEE7FEE770477047044A0029916901D044
:10024000014300E0814391617047000000100240CB
:1002500030B5204A5168204B11F00C0103D004291D
:1002600001D0082901D0036012E05168536801F4FD
:1002700070114FF0020413F4803F04EB914102D05F
:1002800053689B0301D5154B00E0134B59430160A4
:1002900051680F2303EA1111114B5C5C0168E140C6
:1002A00041605468072505EA14241C5D21FA04F412
:1002B0008460546805EAD4241B5DD940C16052684B
:1002C000032303EA9232064B1B1F9A5CB1FBF2F147
:1002D000016130BD0010024000127A0000093D00AB
:1002E00018000020704700000CB50022264800923C
:1002F0000192016841F4803101604FF4A06301680C
:1003000001F4003101910099491C0091019911B942
:1003100000999942F3D10168890333D501210191F4
:100320001A490A6842F010020A600A6822F00302C1
:100330000A600A6842F002020A604168416041684E
:100340004160416841F480614160416821F47C1161
:100350004160416841F4E8114160016841F08071F9
:10036000016001688901FCD5416821F00301416009
:10037000416841F0020141604168C1F381010229F5
:10038000FAD10CBD01920CBD0010024000200240C9
:10039000704700000F4810B5016841F0010101608D
:1003A00041680D4A1140416001680C4A11400160EA
:1003B000016821F480210160416821F4FE0141605F
:1003C0004FF41F018160FFF78FFF05494FF0006078
:1003D000086010BD001002400000FFF8FFFFF6FEAD
:1003E00008ED00E010B5074C0121204600F00FF8A1
:1003F000012805D12046BDE81040012100F004B8D5
:1004000010BD000000100040C94301827047024641
:100410000020138A92890B4202EA010202D0002ACC
:1004200000D0012070470029818902D041F4005199
:1004300001E021F4005181817047024600201288BA
:100440000A4200D00120704730B50446008A85B0CA
:100450000D464CF6FF710840E98801432182A089CE
:100460004EF6F3110840A9882A8911436A8902438C
:100470001143A181A08A4FF6FF410840A989014399
:10048000A1826846FFF7E4FE1948844201D103982F
:1004900000E00298A189090400EBC00101EB001003
:1004A000296801D5490000E08900B0FBF1F0642221
:1004B000B0FBF2F109010B096FF018056B4300EB7B
:1004C0008300A3891D044FF0320306D503EBC0005F
:1004D000B0FBF2F000F0070005E003EB0010B0FB0A
:1004E000F2F000F00F000843208105B030BD00009D
:1004F00000380140C1F3080181807047FEE7000029
:10050000014A024900F013B8B9050008280000208C
:1005100002E008C8121F08C1002AFAD170477047CC
:10052000002001E001C1121F002AFBD170472DE914
:10053000F04116460F460446002503E03946B04711
:10054000641C6D1C20780028F8D12846BDE8F08195
:100550000648016841F08071016005480021416052
:10056000016841F00101016070470000FCED00E00E
:10057000001000E070B5054600244FF47A7603E0E1
:10058000304600F005F8641CAC42F9D370BD0000A1
:10059000064910B54B68064A064C1268B2FBF4F2E5
:1005A00042434868C01A9042FBD310BD001000E0DF
:1005B0000000002040420F0070B5074D0446C1B254
:1005C0002846FFF797FF40212846FFF736FF00280F
:1005D000F9D0204670BD00000038014000F00EF850
:1005E000FFF7B6FF4FF4FA642046FFF7C3FF02A0FF
:1005F000FFF786FFF8E70000310D0A0010B586B05E
:10060000012144F20400FFF717FE4FF40070ADF82B
:10061000100018208DF813000320154C8DF81200DF
:1006200004A92046FFF7B6FD2115ADF810100421EE
:100630008DF8131004A92046FFF7ACFD4FF4E1300C
:1006400000900020ADF80400ADF80600ADF80800F9
:10065000ADF80C000C20074CADF80A0069462046A6
:10066000FFF7F2FE01212046FFF7DDFE06B010BDC8
:1006700000080140003801409806000800000020F2
:100680002C00000010050008C40600082C00002003
:10069000040400002005000800A24A040000000035
:1006A000000000000102030406070809020406080E
:1006B0000000000001020304010203040607080908
:0406C0000000000036
:0400000508000131BD
:00000001FF
