:020000040800F2
:100000000004002049010008D5010008CD010008C6
:10001000D101000891010008D90400080000000087
:10002000000000000000000000000000890300083C
:100030009501000800000000D701000875040008C1
:100040006301000863010008630100086301000800
:1000500063010008630100086301000863010008F0
:1000600063010008630100086301000863010008E0
:1000700063010008630100086301000863010008D0
:1000800063010008630100086301000863010008C0
:1000900063010008630100086301000863010008B0
:1000A00063010008630100086301000863010008A0
:1000B0006301000863010008630100086301000890
:1000C0006301000863010008630100086301000880
:1000D0006301000863010008630100086301000870
:1000E0006301000863010008630100086301000860
:1000F0006301000863010008630100086301000850
:10010000630100086301000863010008630100083F
:10011000630100086301000863010008630100082F
:10012000630100086301000863010008630100081F
:10013000DFF810D000F01AF8004800476105000809
:10014000AFF30080000400200648804706480047BF
:10015000FEE7FEE7FEE7FEE7FEE7FEE7FEE7FEE777
:10016000FEE7FEE77904000831010008064C074D60
:1001700006E0E06840F0010394E807009847103477
:10018000AC42F6D3FFF7D8FF7405000884050008D9
:1001900000BFFEE7704700000549096821F0100123
:1001A000034A11601146096801431160704700005D
:1001B0000020024001460020034A106800F0380089
:1001C00008431060704700000020024000BFFEE7B7
:1001D00000BFFEE7704770470F48006840F001001D
:1001E0000D490860084640680C4908400A494860C3
:1001F000084600680A490840074908600846006840
:1002000020F4802008600846406820F4FE00486022
:100210004FF41F0088607047001002400000FFF894
:10022000FFFFF6FE10B501460022002300204A1110
:10023000012A02D1094C236806E0022A02D1074CA8
:10024000236A01E0054C636A01F01F020124944017
:100250001C400CB1012000E0002010BD0010024045
:100260000248406800F00C00704700000010024097
:1002700001460020034A506820F0F0000843506017
:1002800070470000001002401149096821F48031D4
:100290000F4A11601146096821F480211160B0F500
:1002A000803F03D0B0F5802F0ED106E008490968E1
:1002B00041F48031064A116007E00549096841F4BC
:1002C000A021034A116000E000BF00BF704700009A
:1002D000001002400149C871704700000010024040
:1002E00001460020034A506820F4E0600843506053
:1002F000704700000010024001460020034A506889
:1003000020F4605040EAC100506070470010024085
:100310000149086670470000000042420246002082
:10032000044B586820F47C1042EA01031843014B47
:10033000586070470010024001460020034A506890
:1003400020F0030008435060704700000010024096
:1003500038B5002000900024002500BF3120FFF7B1
:1003600061FF05460098401C00900098B0F5A06F12
:1003700001D0002DF2D03120FFF754FF08B1012445
:1003800000E00024204638BD704710B500F002F8A8
:1003900010BD00000CB500200190009033480068AB
:1003A00040F480303149086000BF3048006800F4F4
:1003B000003000900198401C0190009818B90198F5
:1003C000B0F5A06FF1D12948006800F4003010B1F9
:1003D0000120009001E0002000900098012843D106
:1003E0002348006840F01000214908600846006872
:1003F00020F0030008600846006840F00200086032
:100400001A484068194948600846406848600846EC
:10041000406840F4806048600846406820F47C10E2
:1004200048600846406840F4E810486008460068A4
:1004300040F08070086000BF0C48006800F0007059
:100440000028F9D00948406820F0030007494860B7
:100450000846406840F00200486000BF034840681A
:1004600000F00C000828F9D10CBD0000001002407B
:10047000002002407047000010B51348006840F0AB
:1004800001001149086008464068104908400E49BB
:100490004860084600680E4908400B490860084655
:1004A000006820F4802008600846406820F4FE00C0
:1004B00048604FF41F008860FFF767FF4FF000604F
:1004C0000449086010BD0000001002400000FFF861
:1004D000FFFFF6FE08ED00E000BFFEE702E008C8FF
:1004E000121F08C1002AFAD170477047002001E0AE
:1004F00001C1121F002AFBD1704770B50546FFF7F6
:100500006BFE4FF48030FFF7BFFE00BFFFF720FF08
:100510000446012CFAD11020FFF73EFE0220FFF71F
:1005200049FE0020FFF7A4FE0020FFF7E5FEA00231
:10053000FFF7D6FE29462004FFF7F0FE0120FFF763
:10054000E7FE00BF3920FFF76DFE0128FAD1022037
:10055000FFF7F2FE00BFFFF783FE8028FBD170BDDE
:1005600010B54FF4E010FFF7C8FF0420FFF7B2FE0C
:10057000002010BD840500080000002000040000D9
:04058000EC0400087F
:0400000508000131BD
:00000001FF
