:020000040800F2
:100000002804002049010008BD020008B5020008CC
:10001000B9020008910100089707000800000000DD
:100020000000000000000000000000003D04000887
:10003000950100080000000045030008290500089C
:100040006301000863010008630100086301000800
:1000500063010008630100086301000863010008F0
:1000600063010008630100086301000863010008E0
:1000700063010008630100086301000863010008D0
:1000800063010008630100086301000863010008C0
:1000900063010008630100086301000863010008B0
:1000A00063010008630100086301000863010008A0
:1000B0006301000863010008630100086301000890
:1000C0006301000863010008630100086301000880
:1000D000630100088D050008630100086301000842
:1000E0006301000863010008630100086301000860
:1000F0006301000863010008630100086301000850
:10010000630100086301000863010008630100083F
:10011000630100086301000863010008630100082F
:10012000630100086301000863010008630100081F
:10013000DFF810D000F01AF8004800476509000801
:10014000AFF3008028040020064880470648004797
:10015000FEE7FEE7FEE7FEE7FEE7FEE7FEE7FEE777
:10016000FEE7FEE72D05000831010008064C074DAB
:1001700006E0E06840F0010394E807009847103477
:10018000AC42F6D3FFF7D8FF180B0008380B000875
:1001900000BFFEE770472DE9F0410246002500262A
:1001A000002000230024002791F803C00CF00F0565
:1001B00091F803C00CF0100CBCF1000F03D091F8C3
:1001C00002C04CEA050591F800C0BCF1000F31D027
:1001D000146800202BE04FF0010C0CFA00F3B1F88A
:1001E00000C00CEA03069E4220D183004FF00F0CA2
:1001F0000CFA03F7BC4305FA03FC4CEA040491F83B
:1002000003C0BCF1280F06D14FF0010C0CFA00FC22
:10021000C2F814C00AE091F803C0BCF1480F05D140
:100220004FF0010C0CFA00FCC2F810C0401C08286A
:10023000D1D31460B1F800C0BCF1FF0F34DD5468B5
:1002400000202EE000F1080C4FF0010808FA0CF332
:10025000B1F800C00CEA03069E4221D183004FF0A2
:100260000F0C0CFA03F7BC4305FA03FC4CEA040438
:1002700091F803C0BCF1280F05D100F1080C08FA71
:100280000CF8C2F8148091F803C0BCF1480F07D1F4
:1002900000F1080C4FF0010808FA0CF8C2F81080C1
:1002A000401C0828CED35460BDE8F08141617047FE
:1002B0000161704700BFFEE700BFFEE77047000026
:1002C00070B5002100230F22C47804B3154C2468B4
:1002D00004F4E064C4F5E064210AC1F10403CA40F7
:1002E000447804FA03F184781440214309010E4C48
:1002F0000678A155047804F01F050124AC40057868
:100300006D11AD0005F1E025C5F8004109E0047864
:1003100004F01F050124AC40044D0678761145F821
:10032000264070BD0CED00E000E400E080E100E05C
:1003300002490143024A1160704700000000FA05BB
:100340000CED00E07047000029B1064A92690243B3
:10035000044B9A6104E0034A92698243014B9A611B
:10036000704700000010024030B500210022002438
:1003700000232D4D6D6805F00C0121B1042905D035
:10038000082923D105E0294D056022E0274D0560AD
:100390001FE0254D6D6805F47012234D6D6805F45E
:1003A0008034022505EB92421CB9214D554305606E
:1003B0000BE01D4D6D6805F400351DB11C4D554316
:1003C000056002E0194D5543056002E0174D0560D8
:1003D00000BF00BF144D6D6805F0F0010909154D0F
:1003E0006B5C0568DD4045600F4D6D6805F4E061AC
:1003F000090A104D6B5C4568DD4085600A4D6D68EB
:1004000005F46051C90A0B4D6B5C4568DD40C56061
:10041000054D6D6805F44041890B074D6B5CC5685F
:10042000B5FBF3F5056130BD0010024000127A0003
:1004300000093D000000002010000020704710B5AA
:1004400000F002F810BD00000CB5002001900090F3
:100450003348006840F480303149086000BF3048BC
:10046000006800F4003000900198401C0190009852
:1004700018B90198B0F5A06FF1D12948006800F4CF
:10048000003010B10120009001E0002000900098A1
:10049000012843D12348006840F01000214908603A
:1004A0000846006820F0030008600846006840F035
:1004B000020008601A4840681949486008464068C8
:1004C00048600846406840F48060486008464068DC
:1004D00020F47C1048600846406840F4E81048600A
:1004E0000846006840F08070086000BF0C48006853
:1004F00000F000700028F9D00948406820F003009F
:10050000074948600846406840F00200486000BF64
:100510000348406800F00C000828F9D10CBD000029
:1005200000100240002002407047000010B5134840
:10053000006840F001001149086008464068104911
:1005400008400E494860084600680E4908400B49BB
:1005500008600846006820F480200860084640686B
:1005600020F4FE0048604FF41F008860FFF767FF2B
:100570004FF000600449086010BD00000010024008
:100580000000FFF8FFFFF6FE08ED00E010B540F2B6
:100590002551094800F03AF801280CD140F22551C4
:1005A000054800F00BF8044800F0ECF8C4B220460F
:1005B00000F0E4F900BF10BD0038014010B5002282
:1005C000002340F66A14A14200D100BF0A120124A0
:1005D0009440A3B2DC43048010BD21B1828942F46F
:1005E0000052828104E082894DF6FF731A408281B5
:1005F000704702460020B1F5007F00D100BF13888C
:100600000B400BB1012000E00020704770B502469E
:10061000002400230025002040F66A16B14200D1D4
:1006200000BFC1F3421501F01F03012606FA03F3D0
:10063000012D02D19689334006E0022D02D1168A9F
:10064000334001E0968A33400C12012606FA04F486
:100650001688344013B10CB1012000E0002070BDB9
:10066000F0B50346002400260025002040F66A1756
:10067000B94200D100BF1846C1F3421401F01F0671
:10068000012707FA06F5012C01D10C3004E0022CF9
:1006900001D1103000E014301AB107682F43076011
:1006A00002E00768AF430760F0BD00002DE9F047A6
:1006B00086B005460E460024A24600BFA14600278C
:1006C000B08900B100BF2F462C8A4CF6FF70044061
:1006D000F08804432C82AC894EF6F3100440B088B5
:1006E00031890843718908430443AC81AC8A4FF6D1
:1006F000FF400440B0890443AC8201A8FFF734FEF8
:100700001F48874202D1DDF810A001E0DDF80CA0FF
:10071000A88900F4004040B10AEBCA0000EB0A10BF
:1007200031684900B0FBF1F807E00AEBCA0000EBC2
:100730000A1031688900B0FBF1F86420B8FBF0F0D2
:1007400004012009642101FB1089A88900F40040FC
:1007500040B1322000EBC900B0FBF1F000F007001F
:10076000044308E0322000EB09106421B0FBF1F0F3
:1007700000F00F0004432C8106B0BDE8F0870000B4
:100780000038014001468888C0F308007047C1F373
:1007900008028280704700BFFEE70000014A02495C
:1007A00000F013B8110800082000002002E008C87B
:1007B000121F08C1002AFAD170477047002001E0DB
:1007C00001C1121F002AFBD170472DE9F0411646E6
:1007D0000F460446002503E03946B047641C6D1CF3
:1007E00020780028F8D12846BDE8F08110B50446ED
:1007F00006A0FFF7D3FF207818B9607800F062F800
:1008000002E0607800F07AF810BD00003131390064
:1008100070B504460D46E1B20548FFF7B8FF00BFCA
:1008200080210348FFF7E5FE0028F9D0204670BD7F
:100830000038014008B501218820FFF785FD01201F
:10084000ADF8000010208DF8030003208DF80200A1
:1008500069461A48FFF79FFC0220ADF80000694680
:100860001648FFF798FC2020ADF8000069461348B1
:10087000FFF791FC4FF4C070ADF8000010208DF828
:10088000030003208DF8020069460D48FFF783FC42
:1008900001210A48FFF70CFD02210848FFF708FD77
:1008A00020210648FFF704FD80210548FFF700FDE1
:1008B0004FF480710248FFF7FBFC08BD000C0140BB
:1008C000001C014010B5044624B1012C05D0022CB7
:1008D0000ED107E000F02EF80BE080210648FFF76C
:1008E000E7FC06E04FF480710348FFF7E1FC00E00D
:1008F00000BF00BF10BD0000001C014010B5044641
:1009000024B1012C05D0022C0ED107E000F01AF81A
:100910000BE080210648FFF7C9FC06E04FF4807128
:100920000348FFF7C3FC00E000BF00BF10BD00009C
:10093000001C014010B501210148FFF7B9FC10BDB2
:10094000000C014010B501210548FFF7AFFC022162
:100950000348FFF7ADFC20210148FFF7A9FC10BDBB
:10096000000C01404FF4A060FFF7E2FC00F048F8F3
:10097000FFF760FF01E000F095F8FCE710B50446D2
:10098000194801780078401C174A107017484454E1
:1009900010460078012804D002280DD0072820D165
:1009A00015E012480078552802D000200E49087042
:1009B0000FA0FFF7F3FE15E00C484078AA2802D0FC
:1009C0000020094908700BA0FFF7E8FE0AE00120AB
:1009D0000949087000200449087008A0FFF7DEFEEE
:1009E00000E000BF00BF10BD1E000020140000206A
:1009F00031000000320000001C0000203700000021
:100A000000B587B0012144F20400FFF79DFC4FF4CC
:100A10000070ADF8180018208DF81B0003208DF829
:100A20001A0006A91D48FFF7B6FB4FF48060ADF829
:100A3000180004208DF81B0006A91848FFF7ABFB2F
:100A40004FF4E13002900020ADF80C00ADF80E003C
:100A5000ADF81000ADF814000C20ADF8120002A99A
:100A60000F48FFF723FE25208DF8040002208DF8A3
:100A700005008DF8060001208DF8070001A8FFF79A
:100A80001FFC012240F225510548FFF7E9FD012135
:100A90000348FFF7A2FD07B000BD000000080140B9
:100AA0000038014010B50D480078012800D010BD75
:100AB00000200A4908700621094800F013F8084987
:100AC0008979884200D0F2E70548C078062803D12A
:100AD0000348001DFFF78AFE00BFE8E71C00002066
:100AE0001400002070B505460E460024002003E0E7
:100AF000295C4C40411CC8B2B042F9DB03A0FFF7AF
:100B00004DFE04480470204670BD0000786F6F727F
:100B1000000000001D000020380B0008000000202D
:100B200024000000AC0700085C0B00082400002033
:100B300004040000BC0700080000000001020304D8
:100B40000102030406070809020406080000000069
:0C0B500000000000000000000000000099
:0400000508000131BD
:00000001FF
