:020000040800F2
:10000000800A00207D0100086101000863010008EA
:10001000670100086B0100086F0100080000000084
:100020000000000000000000000000007301000854
:100030007501000800000000770100087901000840
:100040009701000897010008970100089701000830
:100050009701000897010008970100089701000820
:100060009701000897010008970100089701000810
:100070009701000897010008970100089701000800
:1000800097010008970100089701000897010008F0
:1000900097010008970100089701000897010008E0
:1000A00097010008970100089701000897010008D0
:1000B0009701000897010008000000009701000860
:1000C00097010008000000000000000097010008F0
:1000D00000000000970100089701000800000000E0
:1000E000970100089701000897010008DFF810D079
:1000F00002F076F80048004705010008AFF30080E1
:10010000800A0020482001F0FFF901F043F801F0D7
:100110007DF901F04FFB01F080F801F0DAF801F011
:1001200095F804A002F06EF808A002F06BF800BF8A
:10013000FEE70000573535303020496E69742043A2
:100140006F6D706C657465210D0A000053746172E7
:10015000742050696E672054657374210D0A000085
:10016000704700BFFEE700BFFEE700BFFEE700BF2D
:10017000FEE77047704770477047000006488047A9
:1001800006480047FEE7FEE7FEE7FEE7FEE7FEE77C
:10019000FEE7FEE7FEE7FEE77F020008ED0000084D
:1001A0000CB50020019000906C48006840F480304D
:1001B0006A49086000BF6948006800F40030009098
:1001C0000198401C0190009818B90198B0F5A06FF3
:1001D000F1D16248006800F4003010B101200090B5
:1001E00001E0002000900098012843D15C4800689D
:1001F00040F010005A4908600846006820F00300EB
:1002000008600846006840F00200086053484068F3
:10021000524948600846406848600846406840F4D3
:10022000806048600846406820F47C1048600846BA
:10023000406840F4E81048600846006840F080706C
:10024000086000BF4548006800F000700028F9D041
:100250004248406820F00300404948600846406832
:1002600040F00200486000BF3C48406800F00C00CD
:100270000828F9D10CBD10B5FFF792FF10BD10B5DD
:100280003648006840F0010034490860084640687C
:1002900034490840314948600846006832490840FE
:1002A0002E4908600846006820F48020086008464F
:1002B000406820F4FE0048604FF41F008860FFF79C
:1002C000DAFF4FF000602949086010BD10B5002129
:1002D00000200022214B5B6803F00C0121B10429AE
:1002E00006D0082928D107E0214B224C236027E0C3
:1002F0001F4B204C236023E0184B5B6803F4701005
:10030000164B5B6803F48032022303EB904022B962
:10031000194B4343174C23600DE0104B5B6803F40B
:10032000003323B1144B4343124C236003E0104BC2
:100330004343104C236003E00D4B0E4C236000BF81
:1003400000BF064B5B68C3F303130C4CE15C094B25
:100350001B68CB40074C236010BD0000001002401A
:10036000002002400000FFF8FFFFF6FE08ED00E06D
:1003700000127A000000002000093D000400002067
:1003800010B50446CC48844208D10121042000F075
:10039000B7FE0021042000F0B3FE46E0C7488442C7
:1003A00008D10121082000F0ABFE0021082000F058
:1003B000A7FE3AE0C248844208D10121102000F093
:1003C0009FFE0021102000F09BFE2EE0BD488442DD
:1003D00008D10121202000F093FE0021202000F010
:1003E0008FFE22E0B848844208D10121402000F06D
:1003F00087FE0021402000F083FE16E0B3488442CF
:1004000008D10121802000F07BFE0021802000F037
:1004100077FE0AE0AE48844207D10121801500F042
:100420006FFE0021A01500F06BFE10BD10B501217C
:10043000084600F065FE0021012000F061FE10BDBD
:100440002DE9F0410246002500260020002300246B
:10045000002791F803C00CF00F0591F803C00CF0D1
:10046000100CBCF1000F03D091F802C04CEA050556
:1004700091F800C0BCF1000F31D0146800202BE0CF
:100480004FF0010C0CFA00F3B1F800C00CEA0306BF
:100490009E4220D183004FF00F0C0CFA03F7BC43AF
:1004A00005FA03FC4CEA040491F803C0BCF1280FE0
:1004B00006D14FF0010C0CFA00FCC2F814C00AE09F
:1004C00091F803C0BCF1480F05D14FF0010C0CFAB4
:1004D00000FCC2F810C0401C0828D1D31460B1F849
:1004E00000C0BCF1FF0F34DD546800202EE000F1A5
:1004F000080C4FF0010808FA0CF3B1F800C00CEA40
:1005000003069E4221D183004FF00F0C0CFA03F733
:10051000BC4305FA03FC4CEA040491F803C0BCF1A7
:10052000280F05D100F1080C08FA0CF8C2F8148065
:1005300091F803C0BCF1480F07D100F1080C4FF04F
:10054000010808FA0CF8C2F81080401C0828CED325
:100550005460BDE8F0814FF6FF7101800221817087
:100560000421C17070470246002093680B400BB114
:10057000012000E0002070470146886880B2704783
:1005800002460020D3680B400BB1012000E00020A0
:1005900070470146C86880B2704701617047416189
:1005A00070470AB1016100E041617047C160704766
:1005B0004FF480320A43826181618261826982697B
:1005C000704702460020434B18684FF6807318406E
:1005D00040EA021008433F4B186070473E49C8612B
:1005E0007047F0B50A46002300240021002500F0E2
:1005F0000046B6F1004F02D1364EF16901E0354EAA
:100600007168C0F3034583B200F44016B6F5401F8D
:1006100008D121F070612F4E766826F070662D4F5C
:100620007E6012E000F48016B6F5801F06D1032626
:1006300006FA05F4A14341F0706106E0460D36016B
:1006400003FA06F6B14341F0706122B1460D36015E
:1006500003FA06F6314300F00046B6F1004F02D12E
:100660001C4EF16101E01B4E7160F0BD30B50022FF
:100670008B071C0F0F2303FA04F2164B08338C1060
:1006800053F824309343134C08348D1044F825302C
:1006900023468C1053F824308C07240F00FA04F4FE
:1006A00023430C4C08348D1044F8253030BD0A49E2
:1006B000DC3108607047000000080140000C014078
:1006C000001001400014014000180140001C0140CE
:1006D00000200140000001400000204210B5044607
:1006E000BE48844208D10121801400F009FD002198
:1006F000A01400F005FD16E0B948844208D101219C
:10070000001400F00AFD0021201400F006FD0AE0AC
:10071000B448844207D10121C01300F0FEFC00213F
:10072000E01300F0FAFC10BD10B50022028802F4BC
:1007300041520B884C8823438C882343CC88234325
:100740000C8923434C8923438C892343CC8923433D
:100750001A430280838B4FF2FF74234083830B8AFA
:10076000038210BD2DE9F04F85B005460C464FF0D1
:10077000000902274FF000084FF0010B0026B24697
:10078000A88B4FF240010840A88302202884B5F8C6
:100790001C90A068022801D100BF38E0A08810B9E1
:1007A0004FF0010B01E04FF0020B8D48854200D164
:1007B00000E000BF684600F01CFCDDF800A0E08807
:1007C000B0F5007F0AD14FEA1A2000EB800040000C
:1007D000A168B0FBF1F0401D86B20BE04FEA4B1070
:1007E000BAFBF0F000EB80004000A168B0FBF1F034
:1007F000401D86B20A20B6FBF0F606F00108A6EB13
:100800000800C0F34F074FF6FF7000EA0828022FD8
:1008100001DBFF2F02DD02274FF00008E08840EAED
:10082000080038432884A088A189084361880843C8
:100830002188084340F4006040EA0909A5F81C90AB
:1008400005B0BDE8F08F0021018041808180C1802A
:10085000018141818181C18107210182704700218D
:10086000018041808180C1800221816000218181DD
:10087000704721B1028842F04002028004E0028801
:100880004FF6BF731A400280704721B1828B42F449
:100890008062828304E0828B4FF6FF331A408283AA
:1008A000704730B5002400230C110125A540ABB2E0
:1008B0001AB185881D43858002E085889D43858027
:1008C00030BD1AB183880B43838002E083888B4359
:1008D00083807047818170470146888970474FF651
:1008E000FF62914204D0028842F48072028004E0E8
:1008F00002884FF6FF631A400280704721B1828858
:1009000042F00402828004E082884FF6FB731A40B2
:100910008280704702884FF2FF731A40028002887B
:100920000A4302807047018841F48051018070477A
:1009300021B1028842F40052028004E002884DF6A0
:10094000FF731A400280704702460020012901D03F
:10095000108B00E0908A70470146088A7047B1F515
:10096000804F04D1028842F48042028004E0028871
:100970004BF6FF731A40028070470246002013892D
:100980000B400BB1012000E000207047CA430281F8
:100990007047F0B50246002000240023002501F036
:1009A0000F070126BE40B4B20B1101269E40B3B220
:1009B000968806EA03051689264016B10DB1012076
:1009C00000E00020F0BD10B5002201F00F0401236B
:1009D000A3409AB2D343038110BD00000030014010
:1009E00000380040003C004010B50446FB488442FB
:1009F00009D10121880300F083FB00214FF48040DE
:100A000000F07EFB32E0F648844209D1012148041F
:100A100000F083FB00214FF4003000F07EFB25E066
:100A2000F048844209D10121880400F076FB0021BE
:100A30004FF4802000F071FB18E0EB48844209D1AC
:100A40000121C80400F069FB00214FF4002000F0F0
:100A500064FB0BE0E548844208D10121080500F061
:100A60005CFB00214FF4801000F057FB10BD2DE916
:100A7000F04786B005460E460024A24600BFA146B8
:100A80000027B08900B100BF2F462C8A4CF6FF70BA
:100A90000440F08804432C82AC894EF6F3100440E5
:100AA000B08831890843718908430443AC81AC8A1A
:100AB0004FF6FF400440B0890443AC8201A800F027
:100AC00098FAC648874202D1DDF810A001E0DDF8AF
:100AD0000CA0A88900F4004040B10AEBCA0000EB6A
:100AE0000A1031684900B0FBF1F807E00AEBCA00D0
:100AF00000EB0A1031688900B0FBF1F86420B8FB04
:100B0000F0F004012009642101FB1089A88900F498
:100B1000004040B1322000EBC900B0FBF1F000F022
:100B20000700044308E0322000EB09106421B0FB09
:100B3000F1F000F00F0004432C8106B0BDE8F0870F
:100B40004FF41651016000218180C18001810C2188
:100B5000418100218181704710B502460020108A32
:100B60004FF2FF0318400B884C8823438C882343A3
:100B7000CC8823431843108210BD0021018041809E
:100B80008180C180704721B1828942F40052828104
:100B900004E082894DF6FF731A4082817047F0B5F8
:100BA0000346002400260025002040F66A17B942BB
:100BB00000D100BF1846C1F3421401F01F060127FF
:100BC00007FA06F5012C01D10C3004E0022C01D10A
:100BD000103000E014301AB107682F43076002E0BC
:100BE0000768AF430760F0BD1AB1838A0B43838265
:100BF00002E0838A8B4383827047028A4FF6F07348
:100C00001A400282028A0A430282704782894FF2A6
:100C1000FF731A40828182890A438281704721B121
:100C2000828942F00202828104E082894FF6FD73DC
:100C30001A4082817047028A4FF6DF731A4002829F
:100C4000028A0A430282704721B1028A42F480423A
:100C5000028204E0028A4BF6FF731A400282704758
:100C6000C1F308028280704701468888C0F30800FB
:100C70007047818941F0010181817047028BD2B2B6
:100C80000283028B42EA012202837047028B02F444
:100C90007F420283028B0A430283704721B1828A1A
:100CA00042F02002828204E0828A4FF6DF731A400B
:100CB0008282704721B1828A42F01002828204E06F
:100CC000828A4FF6EF731A408282704721B1828A7E
:100CD00042F00802828204E0828A4FF6F7731A40DB
:100CE0008282704721B1828942F40042828103E00E
:100CF0008289C2F30E028281704721B1828A42F456
:100D00000062828204E0828A4FF2FF731A4082827C
:100D10007047828A4FF6FB731A408282828A0A43A6
:100D20008282704721B1828A42F00202828204E00C
:100D3000828A4FF6FD731A40828270470246002075
:100D4000B1F5007F00D100BF13880B400BB101202B
:100D500000E00020704701F40072B2F5007F00D17E
:100D600000BFCA430280704770B5024600240023CA
:100D70000025002040F66A16B14200D100BFC1F341
:100D8000421501F01F03012606FA03F3012D02D1DB
:100D90009689334006E0022D02D1168A334001E0E5
:100DA000968A33400C12012606FA04F41688344061
:100DB00013B10CB1012000E0002070BD10B500227D
:100DC000002340F66A14A14200D100BF0A12012498
:100DD0009440A3B2DC43048010BD00000038014001
:100DE0000044004000480040004C004000500040DB
:100DF000DF48006840F00100DD49086008464068AF
:100E0000DC490840DA49486008460068DA49084089
:100E1000D74908600846006820F48020086008462A
:100E2000406820F4FE0048604FF41F00886070475F
:100E3000CF49096821F48031CD4A11601146096813
:100E400021F480211160B0F5803F03D0B0F5802FF0
:100E50000ED106E0C649096841F48031C44A1160E8
:100E600007E0C349096841F4A021C14A116000E0CC
:100E700000BF00BF704710B50146002200230020CC
:100E80004A11012A02D1BA4C236806E0022A02D193
:100E9000B74C236A01E0B64C636A01F01F020124DB
:100EA00094401C400CB1012000E0002010BD38B57A
:100EB000002000900024002500BF3120FFF7DBFF59
:100EC00005460098401C00900098B0F5A06F01D036
:100ED000002DF2D03120FFF7CEFF08B1012400E051
:100EE0000024204638BD01460020A14A106820F0A9
:100EF000F80040EAC10010607047A04908607047E0
:100F0000024600209A4B586820F47C1042EA010304
:100F10001843974B586070479849086670470146D8
:100F20000020934A506820F0030008435060704747
:100F30008F48406800F00C007047014600208C4A42
:100F4000506820F0F00008435060704701460020D0
:100F5000874A506820F4E0600843506070470146BB
:100F60000020834A506820F4605040EAC10050607D
:100F7000704729B17E4A527A02437D4B5A7204E08F
:100F80007B4A527A82437A4B5A7270477B49D831F6
:100F90000860704701460020754A506820F44040C0
:100FA0000843506070470021714A20321170704A26
:100FB00082F82010012802D004280AD104E001217F
:100FC0006B4A2032117005E00521694A2032117008
:100FD00000E000BF00BF704769490860704764497E
:100FE000096A0143624A11627047654944390860E1
:100FF000704730B500210022002400235C4D6D684D
:1010000005F00C0121B1042905D0082923D105E000
:101010005C4D056022E05B4D05601FE0544D6D683E
:1010200005F47012524D6D6805F48034022505EB0D
:1010300092421CB9544D554305600BE04C4D6D6810
:1010400005F400351DB1504D5543056002E04D4D8E
:101050005543056002E04B4D056000BF00BF444DA5
:101060006D6805F0F0010909484D6B5C0568DD40CD
:1010700045603F4D6D6805F4E061090A434D6B5CC6
:101080004568DD4085603A4D6D6805F46051C90AD8
:101090003E4D6B5C4568DD40C560354D6D6805F4BF
:1010A0004041890B3A4D6B5CC568B5FBF3F50561B2
:1010B00030BD29B12E4A526902432D4B5A6104E0DA
:1010C0002B4A526982432A4B5A61704729B1284AF8
:1010D00092690243264B9A6104E0254A9269824351
:1010E000234B9A61704729B1214AD2690243204BB0
:1010F000DA6104E01E4AD26982431D4BDA6170470F
:1011000029B11B4AD2680243194BDA6004E0184A3D
:10111000D2688243164BDA60704729B1144A1269CB
:101120000243134B1A6104E0114A12698243104BC7
:101130001A61704712494039086070470F49C86406
:1011400070470B49C87170470948406A40F0807089
:1011500007494862704701460020054A92680A40E4
:101160000AB1012000E000207047014988727047F1
:10117000001002400000FFF8FFFFF6FE00004242B0
:101180008004424200127A0000093D001400002051
:101190002400002008B501211D20FFF797FF0F2034
:1011A000ADF8000003208DF8020010208DF8030038
:1011B00069467C48FFF744F901217A48FFF7EFF9C7
:1011C00002217848FFF7EBF904217648FFF7E5F9AB
:1011D00008217448FFF7E1F94FF40070ADF8000002
:1011E00003208DF8020010208DF8030069466E4838
:1011F000FFF726F94FF400716B48FFF7CEF9402056
:10120000ADF8000003208DF8020048208DF803009F
:1012100069466648FFF714F908BD10B54FF4007130
:101220006148FFF7BCF9022000F0B1F94FF40071FA
:101230005D48FFF7B2F94FF4C86000F081F910BDC6
:1012400070B5002044682546A84770BD08B55848C9
:1012500000F082FC56480C3000F075FC5448103009
:1012600000F061FC5248083000F07FFC51495248C0
:1012700000F0C2FB4FF4FA6000F0A9FC032000F07C
:10128000B3FC4E4800F094FC4C48C07800904B48AA
:101290008378427801784AA000F0B4FF4D4800F00E
:1012A00075FC4C48C07800904A48837842780178B1
:1012B00049A000F0A7FF4D4800F060FC4B48C07803
:1012C00000904A4883784278017849A000F09AFF5C
:1012D00008BD3748001F39490968C1603D490968A0
:1012E000016142490968416146490A68426089884A
:1012F000018145490968816100202D49091F08774E
:10130000012048770020C88381F8200001208872DE
:1013100000212748001FC17270472DE9F0410027C6
:10132000002500260BE02248845D2146384600F067
:101330006FFE781C87B2701C86B2681C85B21D2DAA
:10134000F1DBBDE8F08170B50025002407E0204600
:1013500000F086FE054616480555601C84B21D2C1B
:10136000F5D31348001F0079FF281AD11048001F39
:101370004079FF2815D10E48001F8079FF2810D131
:101380000B48001FC079FF280BD10948001F007AC5
:10139000FF2806D10648001F407AFF2801D1FFF739
:1013A00098FF70BD00080140000C01400010014092
:1013B0006800002030000020280000203E000020AF
:1013C000204950203A2025642E25642E25642E25A0
:1013D000640D0A004200002020534E203A2025646C
:1013E0002E25642E25642E25640D0A00460000205B
:1013F000204757203A2025642E25642E25642E256B
:10140000640D0A00380000204A00002000B587B0B3
:1014100001218803FFF767FE01210920FFF756FE2F
:101420004FF48050ADF8040003208DF80600102022
:101430008DF8070001A93248FFF702F84FF48051F8
:101440002F48FFF7AAF84FF46040ADF804000320DE
:101450008DF8060018208DF8070001A92848FEF72E
:10146000EFFF0020ADF808004FF48270ADF80A00DD
:101470000020ADF80C00ADF80E00ADF810004FF4F0
:101480000070ADF812000820ADF814000020ADF88F
:1014900016000720ADF8180002A91A48FFF744F912
:1014A00001211848FFF7E5F907B000BD10B5044663
:1014B0002CB94FF480511248FFF771F805E0012C68
:1014C00003D121030E48FFF768F810BD10B504469C
:1014D00000BF02210B48FFF750FA0028F9D021463F
:1014E0000848FFF7F7F900BF01210648FFF745FA62
:1014F0000028F9D00348FFF7EFF9C0B210BD000093
:10150000000C0140003800404FF0E021096921F053
:1015100004014FF0E0221161C21700EB5272C2F3D6
:10152000C702A14B1A701946097801EB4102C2EBC0
:10153000C1114FF6FF7202EAC1019C4A1180704747
:1015400001469A4A12884A434FF0E0235A6100222A
:101550009A6101221A6100BF4FF0E022106900F089
:1015600001021AB100F48032002AF5D000224FF0B7
:10157000E0231A619A61704710B5044604E04FF405
:101580007A70FFF7DDFF641E002CF8D110BD014614
:10159000854A12784A434FF0E0235A6100229A614B
:1015A00001221A6100BF4FF0E022106900F0010231
:1015B0001AB100F48032002AF5D000224FF0E02367
:1015C0001A619A6170470146302905DB392903DC2D
:1015D000A1F13000C0B27047612905DB662903DC48
:1015E000A1F15700C0B2F6E7412905DB462903DC2B
:1015F000A1F13700C0B2EEE70846ECE730B502468D
:101600000B46002405E012F8010BFFF7DCFF04FB9A
:10161000030410780028F6D1A0B230BD30B50246E0
:101620000B46002405E012F8010BFFF7CCFF04FB8A
:10163000030410780028F6D1204630BD2DE9F04192
:1016400004460D461646701EC7B220223146284673
:1016500000F04EFD00BF0A2094FBF0F100FB1140AA
:101660003030C2B23846791ECFB22A540A2094FBD9
:10167000F0F080B2041EEEDCBDE8F0812DE9F0410F
:1016800004460F46904626460CB1207810B900203B
:10169000BDE8F0810BE03078FFF795FF0546002D9F
:1016A00003DBBD4201DA761C01E00020F0E7307870
:1016B0000028F0D1B9B22046FFF7A0FFC8F800001B
:1016C0000120E5E710B50B46002104E0445C9C4294
:1016D00000D14254491C445C002CF7D110BD014696
:1016E00000200A06100C40EA112070470146002035
:1016F0000806C1F3072240EA0240C1F3074240EA6C
:10170000022040EA116070472DE9F04781460E46FD
:1017100017461D463146484600F0FCFC044630465C
:1017200000F016FD04443946204600F0F3FC8246E2
:10173000AAEB04001FFA80F842462146284600F032
:10174000FBFC002005F80800BDE8F0872DE9F0411A
:1017500088B006460F463146684600F000FD6C46EC
:1017600000251BE012A1204600F002FD044620786F
:10177000302809D16078782806D11021A01CFFF705
:101780003DFF00F0FF0805E00A212046FFF736FF85
:1017900000F0FF0807F8058000246D1C042DE1DB34
:1017A00008B0BDE8F08100004E000020500000208D
:1017B0002E00000000B585B0012144F20500FFF7BE
:1017C00085FC18208DF803004FF40070ADF8000080
:1017D00003208DF8020069462E48FEF731FE0420F2
:1017E0008DF803000002ADF8000069462948FEF7B5
:1017F00027FE4FF4E13001900020ADF80800ADF86D
:101800000A00ADF80C00ADF810000C20ADF80E0089
:10181000012240F225512048FFF7C1F901A91E48D5
:10182000FFF725F901211C48FFF7ADF905B000BD10
:1018300070B504460D46E1B21748FFF711FA00BF34
:1018400080211548FFF77AFA0028F9D0204670BDAC
:1018500010B5044621461048FFF702FA00BF802168
:101860000D48FFF76BFA0028F9D010BD10B50446FB
:101870000BE014F8011B0848FFF7F2F900BF8021C4
:101880000548FFF75BFA0028F9D020780028F0D14E
:1018900010BD000000080140003801400146FE482C
:1018A000405C7047FC4A115470470146FB4830F8D1
:1018B000110070470146FA4830F81100704710B522
:1018C0000020FFF7F3FD10BD10B50120FFF7EEFD7E
:1018D00010BD10B504462046FFF7F8FD10BD70B5E9
:1018E00004460D46FFF7EBFFC4F30740FFF7F1FF97
:1018F000C4F30720FFF7EDFF04F0F801091DC8B29B
:10190000FFF7E7FF2846FFF7E4FFFFF7DDFF70BDB5
:1019100070B504460025FFF7D2FFC4F30740FFF778
:10192000D8FFC4F30720FFF7D4FF04F0F800FFF757
:10193000D0FF0020FFF7CDFF0546FFF7C5FF284683
:1019400070BD2DE9F04104460F461546002615B935
:10195000D4A000F057FCFFF7B2FFC4F30740FFF735
:10196000B8FFC4F30720FFF7B4FF04F0F801091D26
:10197000C8B2FFF7AEFF002604E0B85DFFF7A9FF8D
:10198000701C86B2AE42F8DBFFF79EFF2846BDE82A
:10199000F0812DE9F04104460F461546002615B9A1
:1019A000C0A000F02FFCFFF78AFFC4F30740FFF749
:1019B00090FFC4F30720FFF78CFF04F0F800FFF757
:1019C00088FF002605E00020FFF783FFB855701C54
:1019D00086B2AE42F7DBFFF777FF2846BDE8F0811D
:1019E00010B5044621460020FFF779FF10BD10B561
:1019F0008020FFF7F5FF10BD2DE9F04105460E46AA
:101A00000027B846002489E0295D41F6087202EB00
:101A10004410FFF764FF315D41F6086202EB4410A9
:101A2000FFF75DFF00209E4921F814009B4921F833
:101A30001400B7F5804F32DC285D042816D004DC92
:101A4000012807D0022823D10AE0082814D0102842
:101A50001ED117E04FF48060914921F814001DE079
:101A60004FF400608E4921F8140017E04FF48050C5
:101A70008B4921F8140011E04FF40050884921F8F7
:101A800014000BE04FF48040854921F8140005E074
:101A90004FF40060814921F8140000BF00BFB8F581
:101AA000804F32DC305D042816D004DC012807D0DA
:101AB000022823D10AE0082814D010281ED117E0EC
:101AC0004FF48060754921F814001DE04FF4006068
:101AD000724921F8140017E04FF480506F4921F843
:101AE000140011E04FF400506C4921F814000BE091
:101AF0004FF48040694921F8140005E04FF400607C
:101B0000664921F8140000BF00BF654830F8140092
:101B10000744624830F814008044641C082CFFF627
:101B200073AFBDE8F08110B5044604222146900150
:101B3000FFF707FF10BD10B50446042221469001AF
:101B4000FFF727FF10BD10B50446042221464FF4CD
:101B5000A060FFF7F6FE10BD10B504460622214630
:101B60004FF41060FFF7EDFE10BD10B504460422DF
:101B700021464FF47060FFF7E4FE10BD10B5044637
:101B8000042221469001FFF704FF10BD10B5044662
:101B9000042221464FF4A060FFF7FBFE10BD10B5F4
:101BA0000446062221464FF41060FFF7F2FE10BDF6
:101BB00010B50446042221464FF47060FFF7E9FE99
:101BC00010BD10B54FF4A850FFF7A2FE10BD10B520
:101BD0000446210A4FF4C850FFF781FEE1B24FF4EA
:101BE000D050FFF77CFE10BD10B5044621464FF4DF
:101BF000D850FFF774FE10BD70B50446FFF7E1FF43
:101C000060EA0400C5B229464FF4A850FFF767FE0A
:101C100070BD70B504460D46290A41F2082202EB58
:101C20004410FFF75CFEE9B241F2083202EB4410C7
:101C3000FFF755FE70BD70B504460D4641F20861D0
:101C400001EB44102946FFF74AFE70BD10B504466B
:101C50004FF4027101EB4410FFF75AFE10BD10B5AE
:101C600004464FF4427101EB4410FFF751FE10BDE2
:101C700070B504460025002600BF42F2080101EBC2
:101C80004410FFF745FE064642F2081101EB4410EE
:101C9000FFF73EFE12E00000520000206A0600201E
:101CA0005A060020556E657870656374656432204D
:101CB0006C656E67746820300D0A000000EB06202A
:101CC00086B27EB142F2080101EB4410FFF720FE1C
:101CD000054642F2081101EB4410FFF719FE00EB34
:101CE000052085B2B542C8D1284670BD70B50446FE
:101CF0000025002600BF42F2086101EB4410FFF707
:101D000007FE064642F2087101EB4410FFF700FEA1
:101D100000EB062086B27EB142F2086101EB44106E
:101D2000FFF7F6FD054642F2087101EB4410FFF79C
:101D3000EFFD00EB052085B2B542DCD1284670BD31
:101D40002DE9F04104460F4616460025A8462EB957
:101D500021463BA000F056FABDE8F08142F208416E
:101D600001EB4410FFF7D4FD054642F2085101EBA8
:101D70004410FFF7CDFD00EB052085B2280200EBF3
:101D8000441000F11008324639464046FFF7D9FDAD
:101D9000A81985B2290A42F2084202EB4410FFF763
:101DA0009EFDE9B242F2085202EB4410FFF797FDA4
:101DB00000BFD1E72DE9F04104460F461646002545
:101DC000A8462EB9214626A000F01CFABDE8F081F5
:101DD00042F6080101EB4410FFF79AFD054642F672
:101DE000081101EB4410FFF793FD00EB052085B2CD
:101DF000280200EB441000F11808324639464046EC
:101E0000FFF7C7FDA81985B2290A42F6080202EBBE
:101E10004410FFF764FDE9B242F6081202EB4410E9
:101E2000FFF75DFD00BFD1E770B504460D464FF4E6
:101E3000027101EB44102946FFF751FD70BD00000F
:101E400043483A20256420556E6578706563746553
:101E50006431206C656E67746820300D0A000000E4
:101E600043483A20256420556E6578706563746533
:101E70006432206C656E67746820300D0A000000C3
:101E800008B58020ADF8000003208DF80200142072
:101E90008DF8030069469548FEF7D2FA4020ADF868
:101EA000000003208DF8020010208DF80300694621
:101EB0008E48FEF7C5FA08BD10B580218B48FEF7A5
:101EC0006CFB40218948FEF768FB0120FFF75FFBB0
:101ED00080218648FEF763FB40218448FEF75FFBC4
:101EE00010BD10B580218148FEF759FB40217F4885
:101EF000FEF753FB0120FFF74AFB80217B48FEF7EA
:101F00004CFB10BD70B505462E46002421E0402153
:101F10007648FEF744FB0120FFF739FB06FA04F090
:101F200000F08000802804D180217048FEF735FB46
:101F300003E080216D48FEF732FB0120FFF727FB0D
:101F400040216A48FEF729FB0120FFF720FB601CB7
:101F5000C4B2082CDBDB40216448FEF720FB0120E3
:101F6000FFF715FB80216148FEF717FB0120FFF703
:101F70000EFB70BD70B5002540215C48FEF70FFBDD
:101F80000120FFF704FB80215848FEF706FB0024E0
:101F90001BE00120FFF7FBFA40215448FEF7FDFA51
:101FA0000120FFF7F4FA80215048FEF7DCFA0128FF
:101FB00001D1012600E0002646EA4500C5B24021D5
:101FC0004A48FEF7ECFA601CC4B2082CE1DB0120A1
:101FD000FFF7DDFA284670BD10B5002440214348C4
:101FE000FEF7DBFA0120FFF7D2FA01E0601C84B2B1
:101FF00080213E48FEF7B7FA012801D1FF2CF5DB1E
:1020000040213A48FEF7CBFA0120FFF7C0FA10BD95
:1020100070B504460D4672B6FFF74EFFFE2101EA89
:10202000E41141F0A000FFF76DFFFFF7D5FF204658
:10203000E11704EB11610912A4EB0121CEB2304685
:10204000FFF760FFFFF7C8FF2846FFF75BFFFFF7CA
:10205000C3FFFFF746FF62B60520FFF771FA70BDB8
:1020600070B50446E6B272B6FFF726FFFE2101EA1C
:10207000E41141F0A000FFF745FFFFF7ADFF304648
:10208000FFF740FFFFF7A8FFFFF716FFA120FFF7BC
:1020900039FFFFF7A1FFFFF76DFF0546FFF721FFAF
:1020A00062B6284670BD2DE9F04105460E4617463A
:1020B0009846002407E03A19B15C2A1990B2FFF75C
:1020C000A7FF601C84B24445F5DBBDE8F08170B524
:1020D00004460E46254605E0FF212846FFF798FFF7
:1020E000681C85B2A019A842F6DC70BD000C014046
:1020F000D2B201E000F8012B491EFBD2704700224A
:10210000F6E710B513460A4604461946FFF7F0FFF6
:10211000204610BD30B505462A460B4612F8010B85
:1021200013F8014B08B1A042F8D01CB1002802D02E
:102130006D1CF1E7284630BD10B5044604E00B786D
:1021400000F8013B03B1491C521EF8D2204610BDD5
:10215000421C10F8011B0029FBD1801A704703466E
:1021600011F8012B00F8012B002AF9D1184670470D
:1021700070B50F4D00B92868002412E00A4602E04D
:102180009E4203D0521C1378002BF9D1DAB22243BD
:1021900005D02BB124B1002100F8011B04E0044656
:1021A000401C0678002EE9D12860204670BD000052
:1021B0005C00002030B50B4601460020202201249F
:1021C00009E021FA02F59D4205D303FA02F5491B05
:1021D00004FA02F52844151EA2F10102F1DC30BD1B
:1021E000064C074D06E0E06840F0010394E8070064
:1021F00098471034AC42F6D3FDF77CFF98230008D3
:10220000B82300080FB4054B10B503A9044A02987F
:1022100000F018F810BC5DF814FB0000311800083D
:102220006000002002E008C8121F08C1002AFAD18D
:1022300070477047002001E001C1121F002AFBD146
:10224000704700002DE9FF4F89B09B4604460025EA
:1022500006E025280BD05A460B999047641C6D1C4C
:1022600020780028F5D10DB02846BDE8F08F002772
:10227000B8460122474900E0074314F8013F203BDC
:1022800002FA03F00842F7D120782E2819D114F869
:10229000010F47F004072A280ED06FF02F02207894
:1022A000A0F1300109290CD808EB880102EB4101AB
:1022B00000EB0108641CF2E70A98641C50F8048BD8
:1022C0000A9020780028CED0642808D0692806D04B
:1022D00075281ED05A460B9990476D1C58E00A99F4
:1022E0004FF00A0901C90A91002802DA40422D2163
:1022F00002E0390504D52B218DF82010012103E0DF
:10230000F90704D02021F7E78A4608AE0DE0002146
:10231000FAE70A994FF00A0901C90A91F7E7494615
:10232000FFF748FF303106F8011D0028F7D1ADEB6B
:10233000060000F12009780701D44FF00108C845D4
:1023400002DDA8EB090000E000208046002706E03F
:1023500008A85A46C05D0B9990476D1C7F1C5745D5
:10236000F6DB04E030205A460B9990476D1CB8F11B
:102370000001A8F10108F5DC05E016F8010B5A464A
:102380000B9990476D1CB9F10001A9F10109F4DC2A
:10239000641C65E709280100B8230008000000203C
:1023A00064000000242200081C24000864000020AF
:1023B0001C0A00003422000800A24A0400000000A9
:1023C00000000000010203040607080900000000E5
:1023D00001020304010203040607080902040608B7
:1023E00004020202020202000402020202020200CD
:1023F0000008DC111111C0A8016EFFFFFF00C0A88A
:1024000001010808080800000000000000000000AA
:0C241000000000000000000000000000C0
:04000005080000ED02
:00000001FF
