:020000040800F2
:1000000018040020490100088B030008830300083E
:10001000870300089101000859070008000000004C
:10002000000000000000000000000000F5040008CF
:100030009501000800000000FD030008E10500082C
:100040006301000863010008630100086301000800
:1000500063010008630100086301000863010008F0
:1000600063010008630100086301000863010008E0
:1000700063010008630100086301000863010008D0
:1000800063010008630100086301000863010008C0
:1000900063010008630100086301000863010008B0
:1000A00063010008630100086301000863010008A0
:1000B0006301000863010008630100086301000890
:1000C0006301000863010008630100086301000880
:1000D0006301000863010008630100086301000870
:1000E0006301000863010008630100086301000860
:1000F0006301000863010008630100086301000850
:10010000630100086301000863010008630100083F
:10011000630100086301000863010008630100082F
:10012000630100086301000863010008630100081F
:10013000DFF810D000F01AF8004800476509000801
:10014000AFF30080180400200648804706480047A7
:10015000FEE7FEE7FEE7FEE7FEE7FEE7FEE7FEE777
:10016000FEE7FEE7E505000831010008064C074DF3
:1001700006E0E06840F0010394E807009847103477
:10018000AC42F6D3FFF7D8FF040A0008240A00089F
:1001900000BFFEE770470000002123498279002A52
:1001A0003AD00A46126803689A430B461A600A1D41
:1001B000126803689A430B1D1A60027911440A6899
:1001C00003681A430A60184A0832126803689A439F
:1001D000154B08331A601A1D126803689A43124BB4
:1001E0000C331A604279102A0ED11A1F1268036864
:1001F0001A430D4B08331A601A1D126803681A431C
:10020000094B0C331A600DE00749427911440A6822
:1002100003681A430A6005E0027911440A6803681A
:100220009A430A60704700000004014030B5002284
:100230008B071C0F0F2303FA04F20B4B8C1053F89F
:1002400024309343084C8D1044F8253023468C10FD
:1002500053F824308C07240F00FA04F42343024C93
:100260008D1044F8253030BD080001402DE9F041E3
:10027000024600250026002000230024002791F8D4
:1002800003C00CF00F0591F803C00CF0100CBCF18A
:10029000000F03D091F802C04CEA050591F800C0A8
:1002A000BCF1000F31D0146800202BE04FF0010C9E
:1002B0000CFA00F3B1F800C00CEA03069E4220D10C
:1002C00083004FF00F0C0CFA03F7BC4305FA03FC54
:1002D0004CEA040491F803C0BCF1280F06D14FF09A
:1002E000010C0CFA00FCC2F814C00AE091F803C03B
:1002F000BCF1480F05D14FF0010C0CFA00FCC2F81C
:1003000010C0401C0828D1D31460B1F800C0BCF163
:10031000FF0F34DD546800202EE000F1080C4FF090
:10032000010808FA0CF3B1F800C00CEA03069E427B
:1003300021D183004FF00F0C0CFA03F7BC4305FAF0
:1003400003FC4CEA040491F803C0BCF1280F05D16A
:1003500000F1080C08FA0CF8C2F8148091F803C0F8
:10036000BCF1480F07D100F1080C4FF0010808FA62
:100370000CF8C2F81080401C0828CED35460BDE8A9
:10038000F08100BFFEE700BFFEE7704770B50021B7
:1003900000230F22C47804B3154C246804F4E064ED
:1003A000C4F5E064210AC1F10403CA40447804FAA8
:1003B00003F184781440214309010E4C0678A155BD
:1003C000047804F01F050124AC4005786D11AD00E0
:1003D00005F1E025C5F8004109E0047804F01F05A7
:1003E0000124AC40044D0678761145F8264070BDD6
:1003F0000CED00E000E400E080E100E07047000068
:1004000029B1064A92690243044B9A6104E0034A07
:1004100092698243014B9A617047000000100240CC
:1004200030B500210022002400232D4D6D6805F019
:100430000C0121B1042905D0082923D105E0294D5B
:10044000056022E0274D05601FE0254D6D6805F42D
:100450007012234D6D6805F48034022505EB92423D
:100460001CB9214D554305600BE01D4D6D6805F429
:1004700000351DB11C4D5543056002E0194D554333
:10048000056002E0174D056000BF00BF144D6D68A8
:1004900005F0F0010909154D6B5C0568DD4045600C
:1004A0000F4D6D6805F4E061090A104D6B5C4568FD
:1004B000DD4085600A4D6D6805F46051C90A0B4D39
:1004C0006B5C4568DD40C560054D6D6805F44041D5
:1004D000890B074D6B5CC568B5FBF3F5056130BD55
:1004E0000010024000127A0000093D0000000020C8
:1004F00010000020704710B500F002F810BD000099
:100500000CB50020019000903348006840F4803022
:100510003149086000BF3048006800F400300090A6
:100520000198401C0190009818B90198B0F5A06F8F
:10053000F1D12948006800F4003010B1012000908A
:1005400001E0002000900098012843D12348006872
:1005500040F01000214908600846006820F00300C0
:1005600008600846006840F0020008601A484068C9
:10057000194948600846406848600846406840F4A9
:10058000806048600846406820F47C104860084657
:10059000406840F4E81048600846006840F0807009
:1005A000086000BF0C48006800F000700028F9D017
:1005B0000948406820F00300074948600846406841
:1005C00040F00200486000BF0348406800F00C00A3
:1005D0000828F9D10CBD00000010024000200240A4
:1005E0007047000010B51348006840F00100114941
:1005F000086008464068104908400E4948600846AF
:1006000000680E4908400B4908600846006820F45D
:10061000802008600846406820F4FE0048604FF4DF
:100620001F008860FFF767FF4FF000600449086013
:1006300010BD0000001002400000FFF8FFFFF6FEB2
:1006400008ED00E021B1828942F40052828104E089
:1006500082894DF6FF731A4082817047024600205E
:10066000B1F5007F00D100BF13880B400BB1012012
:1006700000E00020704700002DE9F04786B00546F5
:100680000E460024A24600BFA1460027B08900B153
:1006900000BF2F462C8A4CF6FF700440F0880443BC
:1006A0002C82AC894EF6F3100440B088318908439F
:1006B000718908430443AC81AC8A4FF6FF40044083
:1006C000B0890443AC8201A8FFF7AAFE1F48874205
:1006D00002D1DDF810A001E0DDF80CA0A88900F43B
:1006E000004040B10AEBCA0000EB0A103168490033
:1006F000B0FBF1F807E00AEBCA0000EB0A10316822
:100700008900B0FBF1F86420B8FBF0F00401200987
:10071000642101FB1089A88900F4004040B1322017
:1007200000EBC900B0FBF1F000F00700044308E063
:10073000322000EB09106421B0FBF1F000F00F0053
:1007400004432C8106B0BDE8F0870000003801406A
:10075000C1F308028280704700BFFEE7014A0249E8
:1007600000F013B8C90800081400002002E008C80F
:10077000121F08C1002AFAD170477047002001E01B
:1007800001C1121F002AFBD170472DE9F041164626
:100790000F460446002503E03946B047641C6D1C33
:1007A00020780028F8D12846BDE8F081B0F5E16F47
:1007B00029DA42F2283141434FF0E0225161002111
:1007C00091611146096941F00101116100BF4FF0CB
:1007D000E021096901F4803139B14FF0E021096964
:1007E00001F0010109B1012100E000210029EED052
:1007F0004FF0E021096921F001014FF0E022116181
:10080000002191615DE0002126E02E4A4FF0E023B7
:100810005A6100229A611A46126942F001021A6175
:1008200000BF4FF0E022126902F480323AB14FF07B
:10083000E022126902F001020AB1012200E0002266
:10084000002AEED04FF0E022126922F001024FF0B0
:10085000E0231A614A1CD1B24FF4E16290FBF2F23C
:100860008A42D2DC4FF4E16190FBF1F201FB12010C
:1008700042F2283251434FF0E02251610021916150
:100880001146096941F00101116100BF4FF0E021FB
:10089000096901F4803139B14FF0E021096901F0B3
:1008A000010109B1012100E000210029EED04FF043
:1008B000E021096921F001014FF0E02211610021DE
:1008C000916170474031F70070B504460D46E1B2C2
:1008D0000548FFF73DFF00BF40210348FFF7BEFE7C
:1008E0000028F9D0204670BD003801400EB5012126
:1008F0000846FFF785FD4FF40050019000208DF869
:10090000080008208DF8090001208DF80A0001A8D0
:10091000FFF742FC0D210220FFF788FC28208DF80C
:10092000000002208DF801008DF8020001208DF8F2
:1009300003006846FFF72AFD0EBD000008B501213F
:100940001020FFF75DFD4FF40050ADF800000420CB
:100950008DF8030069460248FFF788FC08BD0000D7
:100960000010014000F010F8FFF7E8FFFFF7BEFFAE
:1009700006E04FF4FA60FFF719FF02A0FFF7EEFE62
:10098000F7E70000310D0A0000B585B0012144F2FF
:100990000400FFF735FD4FF40070ADF8100018208B
:1009A0008DF8130003208DF8120004A91348FFF7F7
:1009B0005DFC4FF48060ADF8100004208DF813004A
:1009C00004A90E48FFF752FC4FF4E13000900020DC
:1009D000ADF80400ADF80600ADF80800ADF80C0065
:1009E0000C20ADF80A0069460548FFF745FE0121D5
:1009F0000348FFF727FE05B000BD000000080140D6
:100A000000380140240A00080000002018000000FF
:100A10006C0700083C0A00081800002000040000D1
:100A20007C07000800000000010203040102030427
:0C0A300006070809020406080000000088
:0400000508000131BD
:00000001FF
