:020000040800F2
:100000002804002049010008BD020008B5020008CC
:10001000B9020008910100087B07000800000000F9
:100020000000000000000000000000003D04000887
:10003000950100080000000045030008290500089C
:100040006301000863010008630100086301000800
:1000500063010008630100086301000863010008F0
:1000600063010008630100086301000863010008E0
:1000700063010008630100086301000863010008D0
:1000800063010008630100086301000863010008C0
:1000900063010008630100086301000863010008B0
:1000A00063010008630100086301000863010008A0
:1000B0006301000863010008630100086301000890
:1000C0006301000863010008630100086301000880
:1000D000630100088D050008630100086301000842
:1000E0006301000863010008630100086301000860
:1000F0006301000863010008630100086301000850
:10010000630100086301000863010008630100083F
:10011000630100086301000863010008630100082F
:10012000630100086301000863010008630100081F
:10013000DFF810D000F01AF8004800470109000865
:10014000AFF3008028040020064880470648004797
:10015000FEE7FEE7FEE7FEE7FEE7FEE7FEE7FEE777
:10016000FEE7FEE72D05000831010008064C074DAB
:1001700006E0E06840F0010394E807009847103477
:10018000AC42F6D3FFF7D8FF800A0008A00A0008A7
:1001900000BFFEE770472DE9F0410246002500262A
:1001A000002000230024002791F803C00CF00F0565
:1001B00091F803C00CF0100CBCF1000F03D091F8C3
:1001C00002C04CEA050591F800C0BCF1000F31D027
:1001D000146800202BE04FF0010C0CFA00F3B1F88A
:1001E00000C00CEA03069E4220D183004FF00F0CA2
:1001F0000CFA03F7BC4305FA03FC4CEA040491F83B
:1002000003C0BCF1280F06D14FF0010C0CFA00FC22
:10021000C2F814C00AE091F803C0BCF1480F05D140
:100220004FF0010C0CFA00FCC2F810C0401C08286A
:10023000D1D31460B1F800C0BCF1FF0F34DD5468B5
:1002400000202EE000F1080C4FF0010808FA0CF332
:10025000B1F800C00CEA03069E4221D183004FF0A2
:100260000F0C0CFA03F7BC4305FA03FC4CEA040438
:1002700091F803C0BCF1280F05D100F1080C08FA71
:100280000CF8C2F8148091F803C0BCF1480F07D1F4
:1002900000F1080C4FF0010808FA0CF8C2F81080C1
:1002A000401C0828CED35460BDE8F08141617047FE
:1002B0000161704700BFFEE700BFFEE77047000026
:1002C00070B5002100230F22C47804B3154C2468B4
:1002D00004F4E064C4F5E064210AC1F10403CA40F7
:1002E000447804FA03F184781440214309010E4C48
:1002F0000678A155047804F01F050124AC40057868
:100300006D11AD0005F1E025C5F8004109E0047864
:1003100004F01F050124AC40044D0678761145F821
:10032000264070BD0CED00E000E400E080E100E05C
:1003300002490143024A1160704700000000FA05BB
:100340000CED00E07047000029B1064A92690243B3
:10035000044B9A6104E0034A92698243014B9A611B
:10036000704700000010024030B500210022002438
:1003700000232D4D6D6805F00C0121B1042905D035
:10038000082923D105E0294D056022E0274D0560AD
:100390001FE0254D6D6805F47012234D6D6805F45E
:1003A0008034022505EB92421CB9214D554305606E
:1003B0000BE01D4D6D6805F400351DB11C4D554316
:1003C000056002E0194D5543056002E0174D0560D8
:1003D00000BF00BF144D6D6805F0F0010909154D0F
:1003E0006B5C0568DD4045600F4D6D6805F4E061AC
:1003F000090A104D6B5C4568DD4085600A4D6D68EB
:1004000005F46051C90A0B4D6B5C4568DD40C56061
:10041000054D6D6805F44041890B074D6B5CC5685F
:10042000B5FBF3F5056130BD0010024000127A0003
:1004300000093D000A0000201A000020704710B596
:1004400000F002F810BD00000CB5002001900090F3
:100450003348006840F480303149086000BF3048BC
:10046000006800F4003000900198401C0190009852
:1004700018B90198B0F5A06FF1D12948006800F4CF
:10048000003010B10120009001E0002000900098A1
:10049000012843D12348006840F01000214908603A
:1004A0000846006820F0030008600846006840F035
:1004B000020008601A4840681949486008464068C8
:1004C00048600846406840F48060486008464068DC
:1004D00020F47C1048600846406840F4E81048600A
:1004E0000846006840F08070086000BF0C48006853
:1004F00000F000700028F9D00948406820F003009F
:10050000074948600846406840F00200486000BF64
:100510000348406800F00C000828F9D10CBD000029
:1005200000100240002002407047000010B5134840
:10053000006840F001001149086008464068104911
:1005400008400E494860084600680E4908400B49BB
:1005500008600846006820F480200860084640686B
:1005600020F4FE0048604FF41F008860FFF767FF2B
:100570004FF000600449086010BD00000010024008
:100580000000FFF8FFFFF6FE08ED00E010B540F2B6
:1005900025510A4800F031F801280DD140F22551CB
:1005A000064800F00FF8054800F0E2F8C4B2204613
:1005B00003490968884700BF10BD000000380140AA
:1005C0002000002010B50022002340F66A14A1424A
:1005D00000D100BF0A1201249440A3B2DC4304807E
:1005E00010BD21B1828942F40052828104E08289E7
:1005F0004DF6FF731A408281704770B502460024A1
:1006000000230025002040F66A16B14200D100BF49
:10061000C1F3421501F01F03012606FA03F3012D71
:1006200002D19689334006E0022D02D1168A33406A
:1006300001E0968A33400C12012606FA04F416886B
:10064000344013B10CB1012000E0002070BDF0B5C2
:100650000346002400260025002040F66A17B94210
:1006600000D100BF1846C1F3421401F01F06012754
:1006700007FA06F5012C01D10C3004E0022C01D15F
:10068000103000E014301AB107682F43076002E011
:100690000768AF430760F0BD2DE9F04786B0054617
:1006A0000E460024A24600BFA1460027B08900B133
:1006B00000BF2F462C8A4CF6FF700440F08804439C
:1006C0002C82AC894EF6F3100440B088318908437F
:1006D000718908430443AC81AC8A4FF6FF40044063
:1006E000B0890443AC8201A8FFF73EFE1F48874251
:1006F00002D1DDF810A001E0DDF80CA0A88900F41B
:10070000004040B10AEBCA0000EB0A103168490012
:10071000B0FBF1F807E00AEBCA0000EB0A10316801
:100720008900B0FBF1F86420B8FBF0F00401200967
:10073000642101FB1089A88900F4004040B13220F7
:1007400000EBC900B0FBF1F000F00700044308E043
:10075000322000EB09106421B0FBF1F000F00F0033
:1007600004432C8106B0BDE8F0870000003801404A
:1007700001468888C0F30800704700BFFEE702E02A
:1007800008C8121F08C1002AFAD17047704700201C
:1007900001E001C1121F002AFBD1704710B50248C9
:1007A00000F004F810BD00001D09000801490860B0
:1007B000704700002000002010B50446207818B9CA
:1007C000607800F04DF802E0607800F065F810BD48
:1007D00008B501218820FFF7B7FD0120ADF8000022
:1007E00010208DF8030003208DF8020069461A4896
:1007F000FFF7D1FC0220ADF8000069461648FFF76C
:10080000CAFC2020ADF8000069461348FFF7C3FC7E
:100810004FF4C070ADF8000010208DF803000320E5
:100820008DF8020069460D48FFF7B5FC01210A4822
:10083000FFF73EFD02210848FFF73AFD2021064858
:10084000FFF736FD80210548FFF732FD4FF4807138
:100850000248FFF72DFD08BD000C0140001C0140BF
:1008600010B5044624B1012C05D0022C0ED107E0AE
:1008700000F02EF80BE080210648FFF719FD06E096
:100880004FF480710348FFF713FD00E000BF00BF85
:1008900010BD0000001C014010B5044624B1012C1D
:1008A00005D0022C0ED107E000F01AF80BE08021F1
:1008B0000648FFF7FBFC06E04FF480710348FFF7A2
:1008C000F5FC00E000BF00BF10BD0000001C0140AF
:1008D00010B501210148FFF7EBFC10BD000C0140F1
:1008E00010B501210548FFF7E1FC02210348FFF79D
:1008F000DFFC20210148FFF7DBFC10BD000C0140AC
:100900004FF4A060FFF714FD00F03AF8FFF760FF26
:10091000FFF744FF01E000F085F8FCE715490A788D
:100920000978491C134B19701349885419460978E2
:10093000012904D002290AD0072917D10FE00E4956
:100940000978552902D000210A4A11700FE00A499E
:100950004978AA2902D00021064A117007E0012136
:10096000064A11700021034A117000E000BF00BF69
:10097000704700000900002000000020080000204F
:1009800000B587B0012144F20400FFF7DDFC4FF40D
:100990000070ADF8180018208DF81B0003208DF8AA
:1009A0001A0006A91D48FFF7F6FB4FF48060ADF86A
:1009B000180004208DF81B0006A91848FFF7EBFB70
:1009C0004FF4E13002900020ADF80C00ADF80E00BD
:1009D000ADF81000ADF814000C20ADF8120002A91B
:1009E0000F48FFF759FE25208DF8040002208DF8EE
:1009F00005008DF8060001208DF8070001A8FFF71B
:100A00005FFC012240F225510548FFF720FE01213D
:100A10000348FFF7E6FD07B000BD000000080140F5
:100A20000038014010B50D480078012800D010BDF5
:100A300000200A4908700621094800F013F8084907
:100A40008979884200D0F2E70548C078062803D1AA
:100A50000348001DFFF7B0FE00BFE8E708000020D4
:100A60000000002010B502460023002003E0145CC3
:100A70006340441CE0B28842F9DB184610BD000018
:100A8000A00A000800000020240000007E070008E3
:100A9000C40A000824000020040400008E07000897
:100AA0000000000000000000000000000000010243
:100AB00003040102030406070809020406080000F3
:040AC0000000000032
:0400000508000131BD
:00000001FF
