:020000040800F2
:1000000030040020490100081D0300081503000802
:100010001903000891010008F10700080000000022
:10002000000000000000000000000000BD04000807
:10003000F501000800000000A5030008A90500085C
:100040006301000863010008630100086301000800
:1000500063010008630100086301000863010008F0
:1000600063010008630100086301000863010008E0
:1000700063010008630100086301000863010008D0
:1000800063010008630100086301000863010008C0
:1000900063010008630100086301000863010008B0
:1000A00063010008630100086301000863010008A0
:1000B0006301000863010008630100086301000890
:1000C0006301000863010008630100086301000880
:1000D000630100080D0600086301000863010008C1
:1000E0006301000863010008630100086301000860
:1000F0006301000863010008630100086301000850
:10010000630100086301000863010008630100083F
:10011000630100086301000863010008630100082F
:10012000630100086301000863010008630100081F
:10013000DFF810D000F01AF8004800475D09000809
:10014000AFF300803004002006488047064800478F
:10015000FEE7FEE7FEE7FEE7FEE7FEE7FEE7FEE777
:10016000FEE7FEE7AD05000831010008064C074D2B
:1001700006E0E06840F0010394E807009847103477
:10018000AC42F6D3FFF7D8FFD00A0008F00A000807
:1001900000BFFEE721B1026842F00102026004E004
:1001A00002684FF6FE731A400260704701464868C5
:1001B00080B2704710B50022026847F6F0739A4388
:1001C0000C6A8B6823430C6923434C6923438C6975
:1001D0002343CC6923434C6A23438C6A23431A4349
:1001E0000260CB6843600B6883604B68C36010BDDE
:1001F0004160704770472DE9F04102460025002616
:10020000002000230024002791F803C00CF00F0504
:1002100091F803C00CF0100CBCF1000F03D091F862
:1002200002C04CEA050591F800C0BCF1000F31D0C6
:10023000146800202BE04FF0010C0CFA00F3B1F829
:1002400000C00CEA03069E4220D183004FF00F0C41
:100250000CFA03F7BC4305FA03FC4CEA040491F8DA
:1002600003C0BCF1280F06D14FF0010C0CFA00FCC2
:10027000C2F814C00AE091F803C0BCF1480F05D1E0
:100280004FF0010C0CFA00FCC2F810C0401C08280A
:10029000D1D31460B1F800C0BCF1FF0F34DD546855
:1002A00000202EE000F1080C4FF0010808FA0CF3D2
:1002B000B1F800C00CEA03069E4221D183004FF042
:1002C0000F0C0CFA03F7BC4305FA03FC4CEA0404D8
:1002D00091F803C0BCF1280F05D100F1080C08FA11
:1002E0000CF8C2F8148091F803C0BCF1480F07D194
:1002F00000F1080C4FF0010808FA0CF8C2F8108061
:10030000401C0828CED35460BDE8F081416170479D
:100310000161704700BFFEE700BFFEE770470000C5
:1003200070B5002100230F22C47804B3154C246853
:1003300004F4E064C4F5E064210AC1F10403CA4096
:10034000447804FA03F184781440214309010E4CE7
:100350000678A155047804F01F050124AC40057807
:100360006D11AD0005F1E025C5F8004109E0047804
:1003700004F01F050124AC40044D0678761145F8C1
:10038000264070BD0CED00E000E400E080E100E0FC
:1003900002490143024A1160704700000000FA055B
:1003A0000CED00E07047000029B1064A5269024393
:1003B000044B5A6104E0034A52698243014B5A617B
:1003C000704700000010024029B1064A92690243BA
:1003D000044B9A6104E0034A92698243014B9A619B
:1003E000704700000010024030B5002100220024B8
:1003F00000232D4D6D6805F00C0121B1042905D0B5
:10040000082923D105E0294D056022E0274D05602C
:100410001FE0254D6D6805F47012234D6D6805F4DD
:100420008034022505EB92421CB9214D55430560ED
:100430000BE01D4D6D6805F400351DB11C4D554395
:10044000056002E0194D5543056002E0174D056057
:1004500000BF00BF144D6D6805F0F0010909154D8E
:100460006B5C0568DD4045600F4D6D6805F4E0612B
:10047000090A104D6B5C4568DD4085600A4D6D686A
:1004800005F46051C90A0B4D6B5C4568DD40C560E1
:10049000054D6D6805F44041890B074D6B5CC568DF
:1004A000B5FBF3F5056130BD0010024000127A0083
:1004B00000093D000000002010000020704710B52A
:1004C00000F002F810BD00000CB500200190009073
:1004D0003348006840F480303149086000BF30483C
:1004E000006800F4003000900198401C01900098D2
:1004F00018B90198B0F5A06FF1D12948006800F44F
:10050000003010B10120009001E000200090009820
:10051000012843D12348006840F0100021490860B9
:100520000846006820F0030008600846006840F0B4
:10053000020008601A484068194948600846406847
:1005400048600846406840F480604860084640685B
:1005500020F47C1048600846406840F4E810486089
:100560000846006840F08070086000BF0C480068D2
:1005700000F000700028F9D00948406820F003001E
:10058000074948600846406840F00200486000BFE4
:100590000348406800F00C000828F9D10CBD0000A9
:1005A00000100240002002407047000010B51348C0
:1005B000006840F001001149086008464068104991
:1005C00008400E494860084600680E4908400B493B
:1005D00008600846006820F48020086008464068EB
:1005E00020F4FE0048604FF41F008860FFF767FFAB
:1005F0004FF000600449086010BD00000010024088
:100600000000FFF8FFFFF6FE08ED00E010B5002443
:1006100040F224410F4800F02FF8012819D10D486D
:100620000488001D04880C48FFF7C0FDC0F11400C9
:10063000072802D101200949087000210648FFF768
:10064000A9FD14210448FFF7D3FD01210248FFF75B
:10065000A1FD10BD003801404400024014000020FC
:1006600021B1828942F40052828104E082894DF6F0
:10067000FF731A408281704770B502460024002340
:100680000025002040F66A16B14200D100BFC1F338
:10069000421501F01F03012606FA03F3012D02D1D2
:1006A0009689334006E0022D02D1168A334001E0DC
:1006B000968A33400C12012606FA04F41688344058
:1006C00013B10CB1012000E0002070BDF0B503466D
:1006D000002400260025002040F66A17B94200D108
:1006E00000BF1846C1F3421401F01F06012707FAA4
:1006F00006F5012C01D10C3004E0022C01D11030A0
:1007000000E014301AB107682F43076002E0076861
:10071000AF430760F0BD00002DE9F04786B0054605
:100720000E460024A24600BFA1460027B08900B1B2
:1007300000BF2F462C8A4CF6FF700440F08804431B
:100740002C82AC894EF6F3100440B08831890843FE
:10075000718908430443AC81AC8A4FF6FF400440E2
:10076000B0890443AC8201A8FFF73EFE1F488742D0
:1007700002D1DDF810A001E0DDF80CA0A88900F49A
:10078000004040B10AEBCA0000EB0A103168490092
:10079000B0FBF1F807E00AEBCA0000EB0A10316881
:1007A0008900B0FBF1F86420B8FBF0F004012009E7
:1007B000642101FB1089A88900F4004040B1322077
:1007C00000EBC900B0FBF1F000F00700044308E0C3
:1007D000322000EB09106421B0FBF1F000F00F00B3
:1007E00004432C8106B0BDE8F087000000380140CA
:1007F00000BFFEE702E008C8121F08C1002AFAD1B4
:1008000070477047002001E001C1121F002AFBD190
:10081000704710B50446207818B9607800F04EF89B
:1008200002E0607800F066F810BD000008B5012114
:100830008820FFF7C9FD0120ADF8000010208DF8D9
:10084000030003208DF8020069461A48FFF7D3FC25
:100850000220ADF8000069461648FFF7CCFC2020C6
:10086000ADF8000069461348FFF7C5FC4FF4C070AF
:10087000ADF8000010208DF8030003208DF8020071
:1008800069460D48FFF7B7FC01210A48FFF740FD14
:1008900002210848FFF73CFD20210648FFF738FDFC
:1008A00080210548FFF734FD4FF480710248FFF7BF
:1008B0002FFD08BD000C0140001C014010B504468E
:1008C00024B1012C05D0022C0ED107E000F02EF847
:1008D0000BE080210648FFF71BFD06E04FF4807116
:1008E0000348FFF715FD00E000BF00BF10BD00008A
:1008F000001C014010B5044624B1012C05D0022C87
:100900000ED107E000F01AF80BE080210648FFF74F
:10091000FDFC06E04FF480710348FFF7F7FC00E0B0
:1009200000BF00BF10BD0000001C014010B5012138
:100930000148FFF7EDFC10BD000C014010B501218E
:100940000548FFF7E3FC02210348FFF7E1FC202103
:100950000148FFF7DDFC10BD000C01404FF4A06022
:10096000FFF716FD00F032F8FFF760FF01E000F03E
:1009700081F8FCE700B58BB001210846FFF714FDB4
:100980000F4800900F48019000200290142003901F
:100990000020079080200590002006900490089089
:1009A0004FF48050099000200A9069460648FFF7EE
:1009B00001FC01210448FFF7EDFB0BB000BD000076
:1009C00004380140180000204400024000B587B000
:1009D000012144F20400FFF7F7FC4FF40070ADF87A
:1009E000180018208DF81B0003208DF81A0006A9A6
:1009F0001E48FFF700FC4FF48060ADF8180004209B
:100A00008DF81B0006A91948FFF7F5FB4FF4E130FC
:100A100002900020ADF80C00ADF80E00ADF810000B
:100A2000ADF814000C20ADF8120002A91048FFF731
:100A300073FE25208DF8040002208DF805008DF846
:100A4000060001208DF8070001A8FFF769FC0122CC
:100A500040F224410648FFF739FE01210448FFF720
:100A6000FFFDFFF787FF07B000BD00000008014051
:100A70000038014010B50D480078012800D010BDA5
:100A800000200A4908700621094800F013F80849B7
:100A90008979884200D0F2E70548C078062803D15A
:100AA0000348001DFFF7B5FE00BFE8E71400002073
:100AB0001800002010B502460023002003E0145C5B
:100AC0006340441CE0B28842F9DB184610BD0000C8
:100AD000F00A00080000002018000000F4070008D9
:100AE000080B000818000020180400000408000883
:100AF00000000000010203040102030406070809C4
:080B00000204060800000000D9
:0400000508000131BD
:00000001FF
